:100000000C9423030C944B030C944B030C944B0360
:100010000C944B030C944B030C944B030C944B0328
:100020000C944B030C944B030C941B040C946B1416
:100030000C944B030C944B030C944B030C944B0308
:100040000C944B030C944B030C944B030C944B03F8
:100050000C944B030C944B030C944B030C94711DA8
:100060000C944B030C944B030C944B030C944B03D8
:100070000C944B030C944B030C944B030C944B03C8
:100080000C944B030C944B030C944B030C944B03B8
:100090000C94BC1F0C944B030C944B030C944B031B
:1000A0000C944B030C944B030C944B033F056605D7
:1000B0001E0766051E07AE05D0051E07D906ED060C
:1000C000C01BC31BB21BB61BBC1BE41BE41BE41B05
:1000D000C71BCB1BCF1BD51BD91BE41BDF1BAED50E
:1000E00080A83FD300408D142002A1C8DA12817F7E
:1000F000D9F1DB40A4A6AF20202020203C3E0020E8
:10010000202020203D3D0020202020205E002020B7
:100110002020202F2F00202020207F207F00202043
:10012000202A2020202A0020207C2E2020202E7C07
:10013000002020202A2020202A0000000000240087
:1001400027002A002D0030000408020110408040E2
:1001500010204080408008020401804020100201ED
:10016000108010204040200404040404030405020D
:100170000202020403020202020606060606060442
:1001800004020202040446696C6573797374656D38
:10019000206572726F72004E6F204641542C2066AB
:1001A0006F726D6174206D65210076312E320042D0
:1001B0006F6F74696E672E2E2E0000000507206099
:1001C000000000000000005F0000000700070014AE
:1001D0007F147F14242A7F2A12231308646236496D
:1001E0005620500008070300001C22410000412255
:1001F0001C002A1C7F1C2A08083E0808008070305A
:1002000000080808080800006060002010080402C8
:100210003E5149453E00427F4000724949494621CE
:1002200041494D331814127F1027454545393C4A42
:100230004949314121110907364949493646494959
:10024000291E0000140000004034000000081422A1
:10025000411414141414004122140802015909060F
:100260003E415D594E7C1211127C7F494949363E10
:10027000414141227F4141413E7F494949417F09F6
:100280000909013E414151737F0808087F00417F01
:1002900041002040413F017F081422417F404040FF
:1002A000407F021C027F7F0408107F3E4141413E97
:1002B0007F090909063E4151215E7F091929462619
:1002C0004949493203017F01033F4040403F1F201D
:1002D00040201F3F4038403F6314081463030478F4
:1002E00004036159494D43007F4141410204081014
:1002F00020004141417F040201020440404040404F
:10030000000307080020545478407F2844443838BC
:1003100044444428384444287F385454541800082E
:100320007E090218A4A49C787F0804047800447D08
:1003300040002040403D007F1028440000417F40A5
:10034000007C047804787C080404783844444438F9
:10035000FC1824241818242418FC7C0804040848D9
:100360005454542404043F44243C4040207C1C202A
:1003700040201C3C4030403C44281028444C909085
:10038000907C4464544C44000836410000007700DF
:1003900000004136080002010204023C2623263CEC
:1003A000DE00198040002061646F7074206D65006C
:1003B0004D6173732053746F72616765206D6F6454
:1003C00065004E4643206D6F6465000902200002FF
:1003D0000100C0320904000002080650000705832E
:1003E000024000050705040240000512011001004B
:1003F000000008EB03632001000102DC012E03482A
:100400000061007200640077006500610072002ED8
:100410000069006F002000320030003100380020F9
:10042000006200610064006700650000001A034C70
:100430000055004600410020004C00690062007237
:1004400000610072007900000004030904202020EC
:1004500041626F727421000043617264206E6F7498
:1004600020737570706F727465642E004E6F204635
:1004700041542C2063616E27742073746F72652160
:10048000005468616E6B20796F7521000020622036
:100490007772697474656E004572726F72200053D2
:1004A000746F72696E6720764361726420696E00B2
:1004B000486920004D61736B696E67207468656DD3
:1004C000207769746820222A2200496E636F727255
:1004D00065637420666C61672063686172732100D4
:1004E00020202041626F7274210000005265616417
:1004F000696E67207461672E2E2E0000030C0F308A
:10050000333C3FC0C3CCCFF0F3FCFF00000000251C
:100510000028002B002E00310000000000230026E0
:100520000029002C002F000000000200090F00002D
:10053000030401000C0000000000000000000000A7
:1005400000000000004E444546205465726D696EFF
:1005500061746F72206E6F7420666F756E642E000A
:100560005461672072656164206661696C65642E00
:1005700000556E737570706F72746564204E4445DB
:1005800046204D494D4520747970652E00546167B1
:100590002072656164206661696C65642E00556E29
:1005A000737570706F72746564204E444546204DBB
:1005B000494D4520747970652E00556E73757070C5
:1005C0006F72746564204E444546207265636F7295
:1005D000642E004E6F742061204E444546204D65C8
:1005E00073736167652E00526561642061636365A2
:1005F00073733A2064697361626C65642E0050689D
:1006000069736879204E4445462E0057726F6E67B5
:10061000204E4445462076657273696F6E2E004EFB
:100620006F74204E44454620666F726D6174746528
:10063000642E005461672072656164206661696C94
:1006400065642E00173011241FBECFEFDAE0DEBF45
:10065000CDBF12E0A0E0B1E0EEE1F1E602C005900E
:100660000D92A835B107D9F725E0A8E5B2E001C0A1
:100670001D92A43BB207E1F713E0C3E2D3E004C04C
:100680002197FE010E946830C232D107C9F70E944B
:1006900043280C948D300C9400008091DB0487FF7C
:1006A0000FC08091E80082FD04C08EB38111F9CFA4
:1006B00010C08091E8008B770AC08EB3882349F080
:1006C0008091E80080FFF9CF8091E8008E778093D9
:1006D000E80008952091E4003091E50095E640910E
:1006E000EC00842F817040FF21C08091E80080FDE4
:1006F0001BC08EB3882391F0853091F08091EB0080
:1007000085FD10C04091E4005091E5004217530769
:1007100031F39A01915019F784E0089582E0089529
:1007200083E0089581E0089580E008954091E80015
:1007300042FFDFCF0895CF92DF92EF92FF920F93A7
:100740001F93CF93DF93EC018B016A010E946A0330
:10075000811133C0C114D10439F0F6018081918137
:10076000081B190BC80FD91FE12CF12C011511051D
:1007700019F18091E80085FD16C08091E8008E7720
:100780008093E800C114D10449F0F6018081918181
:10079000E80EF91EF182E08285E00FC00E946A0334
:1007A000882321F30AC089918093F1000150110937
:1007B000FFEFEF1AFF0ADACF80E0DF91CF911F91B0
:1007C0000F91FF90EF90DF90CF900895982F973082
:1007D00058F59093E900981739F07091EC0020914A
:1007E000ED005091F00003C0242F762F50E021FF40
:1007F00019C03091EB003E7F3093EB003091ED005B
:100800003D7F3093ED003091EB0031603093EB0091
:100810007093EC002093ED005093F0002091EE00D7
:1008200027FF07C09F5FD3CF8F708093E90081E0DF
:10083000089580E008951F920F920FB60F92112431
:100840002F933F934F935F936F937F938F939F93D8
:10085000AF93BF93EF93FF938091E10082FF09C0B4
:100860008091E20082FF05C08091E1008B7F809340
:10087000E1008091DA0080FF19C08091D80080FFEC
:1008800015C08091DA008E7F8093DA008091D900C4
:1008900080FF0AC080E189BD82E189BD09B400FE04
:1008A000FDCF81E08EBB02C019BC1EBA8091E10071
:1008B00080FF16C08091E20080FF12C08091E200AC
:1008C0008E7F8093E2008091E20080618093E2005D
:1008D0008091D80080628093D80019BC85E08EBBDF
:1008E0008091E10084FF2DC08091E20084FF29C047
:1008F00080E189BD82E189BD09B400FEFDCF809110
:10090000D8008F7D8093D8008091E1008F7E809306
:10091000E1008091E2008F7E8093E2008091E2000E
:1009200081608093E20080915A02882311F084E074
:1009300007C08091E30087FD02C081E001C083E031
:100940008EBB8091E10083FF26C08091E20083FF8F
:1009500022C08091E100877F8093E10082E08EBB1E
:1009600010925A028091E1008E7F8093E100809185
:10097000E2008E7F8093E2008091E20080618093AC
:10098000E20042E060E080E00E94E6038091F00037
:1009900088608093F000FF91EF91BF91AF919F919C
:1009A0008F917F916F915F914F913F912F910F9018
:1009B0000FBE0F901F9018951F93CF93DF93CDB765
:1009C000DEB7AA970FB6F894DEBF0FBECDBFEBED32
:1009D000F4E088E08E0F9091F10091938E13FBCF9D
:1009E0008091E80083FF38C08091040190E020915D
:1009F000DF043091E0042817390771F58091DC0499
:100A00008E3F89F08F3F41F58091DB04813221F5E3
:100A10008091E800877F8093E8000E944D0381E089
:100A200080933C0119C08091DB04813AA9F4809144
:100A3000E800877F8093E8008091E80080FFFCCF8A
:100A400080910F0181508093F1008091E8008E77B2
:100A50008093E8000E944D038091E80083FFEEC17F
:100A60008091DB049091DC04492F50E04A3051051D
:100A700008F0E4C1FA01EA5AFF4F0C94683080385C
:100A800021F0823809F0DAC108C0809158029091B3
:100A90005902992389F082600FC08091DF048F7022
:100AA000873008F0CBC18093E9008091EB0085FB93
:100AB000882780F91092E9009091E800977F909341
:100AC000E8008093F1001092F1007FC1282F2D7F64
:100AD00009F0B4C1882319F0823061F0AFC1809170
:100AE000DD04813009F0AAC1933009F080E08093E1
:100AF00059022EC08091DD0481112AC08091DF044B
:100B00008F702FEF280F263008F098C18093E900EE
:100B10002091EB0020FF1CC0933021F48091EB006A
:100B2000806214C09091EB0090619093EB0021E003
:100B300030E0A90102C0440F551F8A95E2F74093A7
:100B4000EA001092EA008091EB0088608093EB004D
:100B50001092E9008091E800877F3AC181116EC14F
:100B60001091DD041F778091E3008078812B8093C2
:100B7000E3008091E800877F8093E8000E944D03A6
:100B80008091E80080FFFCCF8091E3008068809333
:100B9000E300111102C082E001C083E08EBB4EC1B0
:100BA0008058823008F04AC18091DD049091DE04C3
:100BB0008C3D53E0950709F07DC083E08A838AE28B
:100BC00089834FB7F894DE01139620E03EE051E2AE
:100BD000E32FF0E050935700E49120FF03C0E2952B
:100BE000EF703F5FEF708E2F90E0EA3010F0C79605
:100BF00001C0C0968D939D932F5F243149F74FBF5D
:100C00008091E800877F8093E8002091E104309193
:100C1000E2042A32310510F02AE230E040E0BE0161
:100C20006F5F7F4F2115310591F18EB3882309F451
:100C3000BAC0853009F4B7C08091E80083FDB3C025
:100C40008091E80082FD31C08091E80080FFEACF0A
:100C50004091F3008091F20090E0942BFB01BF01E2
:100C60002115310551F08830910538F441914093B8
:100C7000F100215031090196F2CF41E0089709F0C7
:100C800040E08091E8008E778093E800CBCF41115F
:100C9000CCCF0BC08EB3882309F485C0853009F40E
:100CA00082C08091E80083FD7EC08091E80082FFD1
:100CB000F1CF79C0292F33272230310541F023307D
:100CC000310551F02130310509F0B8C0C6C080E2CD
:100CD00090E0EBECF3E017C099278130910549F0E3
:100CE0008230910549F0892B09F0A8C0E9E4F4E0CD
:100CF00005C0EDE2F4E002C0EDEFF3E0849190E096
:100D0000009709F49BC02091E800277F2093E8001A
:100D10002091E1043091E2042817390708F4C90151
:100D200040E0009781F12EB3222309F43CC0253026
:100D3000D1F12091E80023FD36C02091E80022FD8A
:100D40002EC02091E80020FFECCF4091F3002091CD
:100D5000F20030E0342B009759F02830310540F490
:100D600044914093F100319601972F5F3F4FF3CFAD
:100D700041E02830310509F040E02091E8002E776D
:100D80002093E800CECF4111CECF09C08EB3882387
:100D900051F0853041F08091E80083FD04C08091DE
:100DA000E80082FFF3CF8091E8008B778093E80022
:100DB00045C0803809F042C08091E800877F809369
:100DC000E80080915A028093F1008091E8008E77CC
:100DD0008093E8000E944D0331C081112FC0909193
:100DE000DD04923058F58091E800877F8093E80019
:100DF00090935A020E944D0380915A02811106C0BD
:100E00008091E30087FD02C081E001C084E08EBBD9
:100E10008DE2E0E1F1E0DF011D928A95E9F782E0E1
:100E20008093080180930D0185E091E00E94A52147
:100E3000882321F08AE091E00E94A5218091E800BA
:100E400083FF10C08091E800877F8093E800809145
:100E5000EB0080628093EB0005C082E190E0EBEE56
:100E6000F3E051CFAA960FB6F894DEBF0FBECDBF08
:100E7000DF91CF911F9108958E988FE98EBD0DB4AB
:100E800007FEFDCF1EBC0DB407FEFDCF9EB58E9AAA
:100E900081E09F3109F080E0089591B38E9A81B38B
:100EA0009F6B8064892381BB08950E944D0787ED65
:100EB0008EBD0DB407FEFDCF1EBC0DB407FEFDCFE9
:100EC0000EB407FEF9CF0C944D078E9A811590420F
:100ED00008F48E980895AF92BF92CF92DF92EF926E
:100EE000FF920F931F93CF93DF938A01E9016B0168
:100EF0007C01E894E7F8FF245601C6010E946507CB
:100F000082ED8EBD0DB407FEFDCFC6010E941221F9
:100F10001EBC0DB407FEFDCF1EBC0DB407FEFDCFF9
:100F20001EBC0DB407FEFDCF1EBC0DB407FEFDCFE9
:100F300080E092EDD92E01151105A9F17E019EEFF9
:100F4000F91A8032F1F48FEFA81AB80AC5010E948D
:100F50006507DEBC0DB407FEFDCFC5010E9412215E
:100F60001EBC0DB407FEFDCF1EBC0DB407FEFDCFA9
:100F70001EBC0DB407FEFDCF1EBC0DB407FEFDCF99
:100F800080E0FE0160961EBC0DB407FEFDCF9EB54D
:100F90009193EC17FD07B9F78F5FCE15DF0589F642
:100FA00001501109C8CF8E9ADF91CF911F910F91F7
:100FB000FF90EF90DF90CF90BF90AF900895AF92E9
:100FC000BF92CF92DF92EF92FF920F931F93CF9336
:100FD000DF936A01E901DC01CB01AF77BB278C010C
:100FE0000E94650784E88EBD0DB407FEFDCF80E04A
:100FF00090E00E941221F12C80E0EE24E394C114D1
:10100000D104E1F15E019EEFB91A803229F50E9408
:101010005507F11002C083E801C086E88EBD0DB40B
:1010200007FEFDCFC8010E9412210F5F1F4F8E9B4C
:10103000FE24C8010E9465070E944D07F11002C0FE
:1010400084E801C087E88EBD0DB407FEFDCF80E0C7
:1010500090E00E94122180E0FE01609691919EBD79
:101060000DB407FEFDCFEC17FD07C1F78F5FCA1562
:10107000DB0559F691E0C91AD108C1CF0E94550786
:10108000F11002C083E801C086E88EBD0DB407FEF2
:10109000FDCFC8010E9412210E9455078E9ADF9150
:1010A000CF911F910F91FF90EF90DF90CF90BF9065
:1010B000AF9008952F923F924F925F926F927F92DE
:1010C0008F929F92AF92BF92CF92DF92EF92FF9258
:1010D0000F931F93CF93DF93CDB7DEB7A0970FB6D3
:1010E000F894DEBF0FBECDBF5B016A014901E091FC
:1010F000A402F091A502309709F010821092A60286
:1011000026EA32E03093A5022093A40242E1BC011A
:10111000CE0101960E94F90E892B09F07CC1F401E1
:1011200011821082CE0101960E94600A009709F098
:1011300075C18D8187FF02C022E06EC181FF71C140
:101140008B859C85AD85BE85AC01BD014C0D5D1DBB
:10115000611D711D481759076A077B0710F4C12CE0
:10116000D12CEE24E394C114D10409F442C08F8140
:101170009885A985BA85AC01BD015170662777278E
:10118000452B462B472B09F0E7C0E981FA81F28015
:10119000FA94AC01BD0119E076956795579547958E
:1011A0001A95D1F7F42209F049C0892B8A2B8B2B91
:1011B000A1F46F85788989899A89611571058105FE
:1011C000910551F540E050E0BA01CF010E94FF0CBB
:1011D0006F87788B898B9A8B07C04B895C896D8967
:1011E0007E89CF010E94FF0C611571058105910573
:1011F00099F48F819885A985BA854B855C856D8525
:101200007E85481759076A077B0708F0E7C08B8778
:101210009C87AD87BE87E2C061307105810591056D
:1012200009F48ACF6F3FFFEF7F078F079F0711F405
:1012300021E0F2C06B8B7C8B8D8B9E8B89819A8198
:10124000FC0102A513A524A535A54F89588D698DEC
:101250007A8D041715072607370779F069807A8099
:101260004B895C896D897E89C3010E94780A61156A
:1012700071058105910549F45FCF40E050E0BA0166
:101280000E94A00A892B51F3D3CF1B012C012F0CF4
:10129000311C411C511C8601012F11270695011597
:1012A0001105D1F1F30122818F2D90E0A801480FA3
:1012B000591F30E02417350718F48901081B190B52
:1012C0009501A8015527C201B1010E94DF0789815C
:1012D0009A81FC0142A553A564A575A5421953093D
:1012E000640975092801612C712C441555056605A2
:1012F000770570F4542F4427550FB501640F751FFF
:1013000040E052E08E960E94DC0EE981FA81148260
:10131000102F0027110F4AC04F81588569857A85A3
:101320008B859C85AD85BE85481759076A077B0765
:1013300078F040E050E0BA01C3010E94A00A892B76
:1013400009F076CFE981FA8122A633A644A655A6F4
:101350002F8A388E498E5A8E8F819885917020E021
:1013600032E0281B390B86012C153D0508F4890154
:101370004F89588D698D7A8D89819A810E94A00A42
:10138000892B09F055CF8F819885A985BA859170F1
:10139000AA27BB278E9629813A81A801B501820F21
:1013A000931F0E94DC0EE981FA81E482A00EB11E37
:1013B0008F819885A985BA85800F911FA11DB11DC8
:1013C0008F839887A987BA87F40180819181800FE4
:1013D000911F91838083C01AD10AC5CE8D8180620E
:1013E0008D83CE0101960E94D11A0097B9F4CE01E7
:1013F00001960E94711B009789F4E091A402F0917C
:10140000A502309709F010821092A5021092A40252
:1014100080E090E008C020E090E001C0282F822FFB
:1014200002C027E0F9CFA0960FB6F894DEBF0FBE3A
:10143000CDBFDF91CF911F910F91FF90EF90DF9083
:10144000CF90BF90AF909F908F907F906F905F9064
:101450004F903F902F900895CF93DF93EC01CB01F5
:10146000BA019E01225D3F4F41E050E00E946B07B0
:10147000FE01E45DFD4F8081918185359A4AD1F46A
:10148000E85CF14080819181A281B381BB278634E1
:101490009144A445B10581F0C058DF4F488159817E
:1014A0006A817B81772781E0463451446445710528
:1014B00021F402C082E001C080E0DF91CF91089565
:1014C000DC01ED91FC911197309779F02081222376
:1014D00061F02681378112968D919C911397281780
:1014E000390719F480E090E0089589E090E00895CC
:1014F0000F931F93FC019A01AB012250310941095E
:10150000510986899789A08DB18D0297A109B109EA
:10151000281739074A075B0768F4A281B0E00E94E8
:101520006E3006A117A120A531A5600F711F821F83
:10153000931F03C060E070E0CB011F910F910895ED
:101540007F928F929F92AF92BF92CF92DF92EF9253
:10155000FF920F931F93CF93DF93FC0182A493A478
:10156000A4A4B5A484169506A606B70609F44BC034
:101570006A017B01EC018481811114C0C114D10482
:10158000E104F10409F43FC09E01225D3F4F41E0B8
:1015900050E0C701B6010E946B07CAA6DBA6ECA605
:1015A000FDA631C08F01025D1F4F980141E050E060
:1015B000C501B4010E94DF071C824A8D5B8D6C8DD2
:1015C0007D8D8E8D9F8DA8A1B9A1840F951FA61F1B
:1015D000B71F88169906AA06BB0680F67B80F1E045
:1015E000F71560F68A8D9B8DAC8DBD8D880E991E8A
:1015F000AA1EBB1E980141E050E0C501B4010E9443
:10160000DF077A94ECCF80E090E0DF91CF911F91DB
:101610000F91FF90EF90DF90CF90BF90AF909F9091
:101620008F907F9008954F925F926F927F928F92EA
:101630009F92AF92BF92CF92DF92EF92FF920F9361
:101640001F93CF93DF9300D000D0CDB7DEB74C010E
:101650006A017B012801390142305105610571059C
:1016600008F4EAC0FC0186899789A08DB18D4817DE
:1016700059076A077B0708F0DFC08081823009F4D0
:1016800075C0833009F498C0813009F0CEC05A018A
:10169000B694A794A40EB51EC501892F99278695E7
:1016A000468D578D60A171A1480F591F611D711D95
:1016B000C4010E94A00A009709F0B9C0F501F170B9
:1016C000AF01480D591DD701C60181709927AA277E
:1016D000BB2789839A83AB83BC83C0FE0BC0DA012E
:1016E0009E968C91282F2F70B0E14B9EC001112443
:1016F000822B01C0842DFA0186A7FFEFAF1ABF0A23
:1017000081E0D40114968C931497C501892F9927F1
:1017100086955E964D915D916D917C919197480F64
:10172000591F611D711DC4010E94A00A009709F094
:101730007EC0B1E0BB22F401EA0DFB1D29813A8194
:101740004B815C81232B242B252B41F064E0769484
:101750006794579447946A95D1F706C036A5307FB1
:10176000252D2F70432E422A46A661C077276F2D64
:101770005E2D4D2DF401868D978DA0A1B1A1480F4E
:10178000591F6A1F7B1FC4010E94A00A009709F01D
:101790004EC0CC0CDD1CEE1CFF1CE894C0F8F1E040
:1017A000DF22EE24FF242EE2C20ED11CF401EC0D48
:1017B000FD1D518240823BC0F401868D978DA0A112
:1017C000B1A137E076956795579547953A95D1F74A
:1017D000480F591F6A1F7B1FC4010E94A00A00976F
:1017E00031F522E0CC0CDD1CEE1CFF1C2A95D1F754
:1017F000FCEFCF22F1E0DF22EE24FF242EE2C20E26
:10180000D11CF401EC0DFD1D408151816281738179
:10181000442755276627707F442A552A662A772A47
:10182000408251826282738202C082E090E021E0B5
:10183000D40114962C9302C082E090E00F900F9098
:101840000F900F90DF91CF911F910F91FF90EF902C
:10185000DF90CF90BF90AF909F908F907F906F90D0
:101860005F904F900895AF92BF92CF92DF92EF9228
:10187000FF921F93CF93DF93EC016A017B0142300B
:1018800051056105710508F4A8C08E899F89A88D4E
:10189000B98D481759076A077B0708F09EC08881F1
:1018A000823009F44AC0833009F46BC0813009F0FA
:1018B00099C05A01B694A794AC0CBD1CC501892FE0
:1018C000992786954E8D5F8D68A179A1480F591F84
:1018D000611D711DCE010E94A00A892B09F082C0F2
:1018E000F501F170EC0FFD1F16A58FEFA81AB80ACD
:1018F000C501892F992786954E8D5F8D68A179A1A5
:10190000480F591F611D711DCE010E94A00A892B2D
:1019100009F068C0C5019170FE01E80FF91F86A5A6
:10192000612F70E0782BC0FE06C054E07695679575
:101930005A95E1F723C07F7021C077276F2D5E2D68
:101940004D2D8E8D9F8DA8A1B9A1480F591F6A1FDB
:101950007B1FCE010E94A00A892B09F043C0CC0C4A
:10196000DD1CEE1CFF1CE894C0F881E0D822EE24B8
:10197000FF24FE01EC0DFD1D66A577A580E090E03B
:1019800034C08E8D9F8DA8A1B9A127E0769567956B
:10199000579547952A95D1F7480F591F6A1F7B1F06
:1019A000CE010E94A00A892BE9F482E0CC0CDD1C58
:1019B000EE1CFF1C8A95D1F78CEFC82281E0D8225B
:1019C000EE24FF24FE01EC0DFD1D86A597A5A0A920
:1019D000B1A9BC01CD019F7008C061E070E080E05A
:1019E00090E003C06FEF7FEFCB01DF91CF911F91AC
:1019F000FF90EF90DF90CF90BF90AF9008954F92FF
:101A00005F926F927F928F929F92AF92BF92CF928E
:101A1000DF92EF92FF920F931F93CF93DF93EC012E
:101A20002A013B01411551056105710599F48A842C
:101A30009B84AC84BD8481149104A104B10409F198
:101A40008E899F89A88DB98D88169906AA06BB062E
:101A5000E0F017C00E94330C6B017C01623071050D
:101A60008105910508F480C08E899F89A88DB98D64
:101A7000C816D906EA06FB0608F47BC053014201EA
:101A800004C0812C912C54018394750164018FEF63
:101A9000C81AD80AE80AF80A8E899F89A88DB98DD4
:101AA000C816D906EA06FB0668F022E08216910401
:101AB000A104B10410F460E058C082E0C82ED12C1B
:101AC000E12CF12CB701A601CE010E94330C8B0151
:101AD0009C01672B682B692BA1F00F3F8FEF180734
:101AE0002807380729F0013011052105310519F4BF
:101AF000B801C90145C0C814D904EA04FB0439F689
:101B0000DACF0FEF1FEF2FEF3FE0B701A601CE01B5
:101B10000E94130B009731F54114510461047104C4
:101B2000C1F4CA86DB86EC86FD868E859F85A889F2
:101B3000B9898F3F2FEF9207A207B207D1F0019723
:101B4000A109B1098E879F87A88BB98B81E08D830E
:101B500010C097018601B301A201CE010E94130BB0
:101B60000097F9F2019741F061E070E080E090E0C9
:101B700007C0B601C70104C06FEF7FEF8FEF9FEF83
:101B8000DF91CF911F910F91FF90EF90DF90CF9059
:101B9000BF90AF909F908F907F906F905F904F908D
:101BA00008958F929F92AF92BF92CF92DF92EF9261
:101BB000FF920F931F93CF93DF93EC016B01EC80A7
:101BC000FD808FEFE81AF80A19F484E090E0E7C08E
:101BD0004E855F85688979894115510561057105D3
:101BE000A1F387010F7011270115110509F0C3C07A
:101BF0004F5F5F4F6F4F7F4F4E875F87688B798B4B
:101C00004A855B856C857D8588819981FC014115BC
:101C100051056105710531F480859185E816F90655
:101C2000A0F6A9C0228130E021503109F701A4E0DB
:101C3000F695E795AA95E1F72E233F23232B09F08C
:101C40009AC00E94330C4B015C0162307105810522
:101C5000910518F482E090E0A2C08FEF88169806F4
:101C6000A806B80619F481E090E099C088819981AE
:101C7000FC0146895789608D718D84169506A606EC
:101C8000B70608F46AC0CD2809F49FCF4A855B8562
:101C90006C857D850E94FF0C4B015C01611571050F
:101CA0008105910509F479C06130710581059105BF
:101CB00089F28FEF88169806A806B806A1F240E0D0
:101CC00050E0BA01888199810E94A00A892B59F6B7
:101CD00088819981FC01BE96825D9D4FE817F907C6
:101CE00011F01192FBCFC880D980B501A401C601C3
:101CF0000E94780AF60162A773A784A795A7D12C42
:101D0000CC24C394E881F9818281D816D0F4C482AE
:101D100040E050E0BA01888199810E94A00A892B95
:101D200009F0A1CFE881F98182A593A5A4A5B5A565
:101D30000196A11DB11D82A793A7A4A7B5A7D3940F
:101D4000E1CF82A593A5A4A5B5A58D199109A109F7
:101D5000B10982A793A7A4A7B5A78A869B86AC865C
:101D6000BD86B501A401888199810E94780A6E8799
:101D70007F87888B998BFD82EC8285E0000F111F95
:101D80008A95E1F7025D1F4F88819981080F191F1D
:101D90001B8B0A8B80E090E002C087E090E0DF912F
:101DA000CF911F910F91FF90EF90DF90CF90BF9058
:101DB000AF909F908F900895CF93DF93EB01DC015C
:101DC000FA01E230F10530F0299139912D933D93DC
:101DD0003297F7CF9A012E7FDC01A20FB31FFB01D0
:101DE000E20FF31F40FF02C020812C93DF91CF91BF
:101DF00008952F923F924F925F926F927F928F92AF
:101E00009F92AF92BF92CF92DF92EF92FF920F9389
:101E10001F93CF93DF93CDB7DEB7E7970FB6F89454
:101E2000DEBF0FBECDBF9FA38EA37CA36BA348A72D
:101E3000009709F4F1C1DC011D921C92FB01808125
:101E4000082E000C990BC0978A30910538F4218137
:101E50002A3321F43296FCA3EBA302C080E090E089
:101E6000892B09F0DBC10091A4021091A502011594
:101E7000110509F4D5C11A830983D8018C91811108
:101E8000D4C11C9211961C9240E050E0BA01C801E6
:101E90000E942C0A8130A9F4F801E051FE4F8081A4
:101EA000811102C08DE0BFC1F801EC50FE4F80806F
:101EB0009180A280B380B501A401C8010E942C0AC0
:101EC00003C0812C912C5401833009F4ABC18111E2
:101ED000E9CFF80181AD92AD8115924019F7F80173
:101EE000EC5BFF4F40805180612C712C41145104F8
:101EF0006104710429F43E964080518062807380B1
:101F0000D8015A964D925D926D927C925D97DE96C5
:101F1000AC91F801A3838FEF8A0F823018F6B0E0FE
:101F2000A30192010E946E3068AB79AB8AAB9BAB88
:101F300023AD2283222309F4B5CF822F90E0AC0198
:101F40004150510984239523892B09F0ABCFFF968B
:101F500020803180D80119963C922E921897C101A9
:101F60008F709927892B09F09DCF329660817181FE
:101F7000CB01A0E0B0E00097A105B10529F43D96A2
:101F800080819181A281B381F80144AD55AD4115A5
:101F9000510509F487CF6A01E12CF12CCCAADDAA06
:101FA000EEAAFFAAA10164E0569547956A95E1F76C
:101FB000C40ED51EE11CF11C48A959A96AA97BA928
:101FC0004C0D5D1D6E1D7F1D4CA75DA76EA77FA7E5
:101FD00084179507A607B70708F464CFBC01CD01A5
:101FE000CCA4DDA4EEA4FFA46C197D098E099F0981
:101FF00030E040E050E00E944630211531054105B7
:10200000510509F44FCF263F6FE0360741055105D2
:1020100048F0263F7FEF37074105510530F482E055
:102020008DA305C091E09DA302C0A3E0ADA369010B
:102030007A01B2E0CB0ED11CE11CF11CF801C68A7A
:10204000D78AE08EF18E8CA59DA5AEA5BFA5880D83
:10205000991DAA1DBB1D86A397A3A0A7B1A78CA9F4
:102060009DA9AEA9BFA9880D991DAA1DBB1D868F6C
:10207000978FA0A3B1A3FDA1F330B9F4232809F0F1
:1020800011CFF801E65AFF4F80819181A281B3817F
:10209000F80182A393A3A4A3B5A342E0CC0CDD1C5A
:1020A000EE1CFF1C4A95D1F72DC0232809F4FACE67
:1020B00028A939A94AA95BA9820F931FA41FB51F9C
:1020C000F80182A393A3A4A3B5A3FDA1F23029F440
:1020D000CC0CDD1CEE1CFF1C15C0A3E0B0E0A7017A
:1020E00096010E946E30DC01CB01B695A7959795BD
:1020F000879521E0C222DD24EE24FF24C80ED91EDC
:10210000EA1EFB1E3FEFC30E31E0D31EE11CF11CA3
:1021100089E0F694E794D794C7948A95D1F74C1444
:102120005D046E047F0408F4BDCE8FEF9FEFDC01E9
:10213000F80186879787A08BB18B12861386148649
:102140001586BDA1B33009F04EC01582E25AFF4F8B
:102150008081918175016401C80ED91EE11CF11CBA
:10216000C701B601D8015296CD92DD92ED92FC9254
:1021700055979801225D3F4F41E050E00E946B0768
:10218000F801E45DFD4F8081918185359A4A59F5CA
:10219000F80186A597A5A0A9B1A982359245A146C7
:1021A000B14409F5F801EE5EFD4F80819181A28175
:1021B000B38182379247A144B146A9F43896808111
:1021C0009181A281B381F80182879387A487B58723
:1021D000EA5EFD4F80819181A281B381F8018687FB
:1021E0009787A08BB18BCDA0D801CC928091E304CE
:1021F0009091E40401969093E4048093E30417968D
:102200009C938E9316979A961D921D921D921C92E6
:102210009D9714961C9209C089E005C08BE003C00D
:102220008CE001C081E090E0F5C2CE0147969E8B24
:102230008D8BEBA1FCA180818F3211F08C3529F4BC
:10224000EBA1FCA13196FCA3EBA31F821886198693
:102250001A86ABA1BCA18C91803228F0B0E2FB2E93
:1022600015E0E12E6CC0CE0101960E9428218C0160
:102270001C8A1B8A0EC120E030E060E070E048E07C
:1022800050E0712CCB0101968201060F171FD80177
:102290000C91013208F06DC06201C80ED91EDCA29B
:1022A000CBA2013208F4B7C080E0232B09F4EFC0C1
:1022B0009081953E09F4E0824830510511F4770C85
:1022C000770C972D9370913009F48061972D9C7055
:1022D000943009F488608387CE0101960E942821FA
:1022E000009709F49AC0ED89FE892385009709F0CB
:1022F000C2C022FDC6C04B895C89DA011B968C9155
:102300001B9784FFC1C05A968D919C915B97A0E06A
:10231000B0E029813A81F9012081233061F4FA018A
:102320004489558960E070E0BA0155274427842B21
:10233000952BA62BB72B8F839887A987BA878BA05D
:102340009CA02401F4019081FFEF8F1A9F0A9F3215
:10235000C1F39C35B1F3ED89FE89CF019F01255F63
:102360003F4F8217930709F486CFDC01FD92CD0120
:10237000F8CF0F3209F490CF0C3509F48DCF0E321F
:1023800009F425C22417350708F081C007FF03C0F0
:10239000B72DB3607B2E1FE7100F1F3120F010E226
:1023A000100F1D3128F56E5F7F4F840D951DDC01E8
:1023B0001C9180EC810F8F3328F080E8810F8D37DE
:1023C00008F065C0CA0101972817390708F05FC0F7
:1023D000CF01820F931FDC010C93C90101968E0F70
:1023E0009F1F2E5F3F4FDC011C93CB01BC014ACFE6
:1023F000C02ED12CA2E1AA2EA2E0BA2ED5016D9159
:102400005D01662309F4EEC1062E000C770B6C15F6
:102410007D05A1F73CC084E048CF4F855889698984
:102420007A8989819A810E94A00A009709F05BCF7E
:10243000EB89FC8980818823C1F0838583FD0EC0F0
:10244000AD89BE899F01255F3F4FE217F30781F0F9
:1024500081914D9190E0841B9109B9F360E070E0A7
:10246000CE0101960E94D10D3BCF84E090E03BCF9E
:1024700080E090E038CF8C01049759F422FF04C02B
:1024800008C000E010E005C005E010E002C006E072
:1024900010E02B883C880115110529F42114310422
:1024A00011F406E010E0F8A5FF71FDA388A58C717A
:1024B00009F4E9C001151105C1F10430110561F5F8
:1024C000CE0101960E9428218C01892B29F54F8588
:1024D000588969897A8989819A810E94A00A8C0128
:1024E000892BD1F4EB89FC898081853E09F42DC1CB
:1024F000882309F42AC161E070E0CE0101960E94B0
:10250000D10DE2CF6D897E894BE050E00E94DC0E58
:10251000E981FA8181E084832DA128602DA32B8895
:102520003C880115110551F050C1D1011B968C91C9
:10253000817109F048C1C8A4C2FC1FC1DDA0D3FE4F
:10254000B0C080E090E0ACE2BDE4F10186879787FF
:10255000A08BB18B1386148E158E168E178EC980A4
:10256000DA80DCA2CBA2828D938D2C01612C712CA0
:10257000D6018C91833059F484899589A0E0B0E02C
:10258000DC0199278827482A592A6A2A7B2AD101FF
:102590005B961C921E925A9755961C921E925497C7
:1025A00081E0EBA1FCA18483411451046104710416
:1025B00009F477C0C2A4D3A4E4A4F5A4C8A6D9A6FC
:1025C000EAA6FBA6B2E04B1651046104710408F4BC
:1025D000D7C086899789A08DB18D481659066A069D
:1025E0007B0608F0CDC073016201EBA1FCA18689D6
:1025F0009789A08DB18DC816D906EA06FB0608F0AA
:10260000C5C0B701A6018BA19CA10E94330C4B0150
:102610005C01611571058105910509F4B7C0613050
:1026200071058105910509F4ABC06F3F7F4F8F4F56
:102630009F4F09F4A8C000E010E09801B701A6017F
:102640008BA19CA10E94130B8C01892B09F0BDC0AA
:10265000EBA1FCA186859785A089B1898F3FFFEF0B
:102660009F07AF07BF0761F00196A11DB11DEBA148
:10267000FCA186879787A08BB18BCC24C394C5829D
:1026800075016401B2CF0115110509F09EC0D10199
:102690001B968C9184FD94C0C8A4C1FE02C080FD2D
:1026A00092C0DDA0D3FE03C02D2D20622DA3098191
:1026B0001A81D8019A964D915D916D917C919D976B
:1026C000EEA1FFA1428F538F648F758F378E268EB8
:1026D000CDA0C482D1015A968D919C915B97A0E0C8
:1026E000B0E0F8012081233061F4F101448955897B
:1026F00060E070E0BA0155274427842B952BA62B68
:10270000B72BEEA1FFA186879787A08BB18BF10134
:10271000848D958DA68DB78DEEA1FFA182879387BD
:10272000A487B5871682178210861186168A178AA3
:10273000108E118E11830083D80116968D919C9175
:1027400017979383828380E06ECD4F85588969897E
:102750007A8989819A810E94A00A8C01892B09F0CB
:10276000DBCE8B899C89FC019C01205E3F4FE217E8
:10277000F30709F4C7CE1192FACF08E010E025C0A4
:1027800002E010E022C001E010E01FC089819A81C0
:10279000B301A2014150510961097109DC011A9686
:1027A0004D935D936D937C931D9748A559A56AA59C
:1027B0007BA50E94A00A8C01892B09F472CF05C069
:1027C00004E010E002C007E010E0C80123C0483078
:1027D000510509F05CCE770C770C28E030E04BE037
:1027E00050E004CE6FEB600F6A3120F4B72DB26079
:1027F0007B2E08C06FE9600F6A3120F4672D61609D
:10280000762E0052BF01620F731FDB010C932F5F06
:102810003F4FECCDE7960FB6F894DEBF0FBECDBFAD
:10282000DF91CF911F910F91FF90EF90DF90CF90AC
:10283000BF90AF909F908F907F906F905F904F90E0
:102840003F902F900895CF92DF92EF92FF920F93D7
:102850001F93CF93DF938B016A014115510541F01E
:10286000FA01C081D1810C1B1D0BC80FD91F01C0FB
:10287000EC01E12CF12C0115110519F18091E80012
:1028800085FD16C08091E8008B778093E800C11425
:10289000D10449F0F60180819181E80EF91EF182A0
:1028A000E08285E00FC00E946A03882321F30AC0FA
:1028B0008091F100899301501109FFEFEF1AFF0A8F
:1028C000DACF80E0DF91CF911F910F91FF90EF90D1
:1028D000DF90CF9008951F920F920FB60F921124A0
:1028E0002F933F934F935F936F937F938F939F9318
:1028F000AF93BF93CF93DF93EF93FF93C091E90022
:10290000CF708091EC00D82FD17080FDD0E810926C
:10291000E9008091F000877F8093F00078940E9416
:10292000DC041092E9008091F00088608093F00050
:10293000CD2BCF70C093E900FF91EF91DF91CF9144
:10294000BF91AF919F918F917F916F915F914F91C7
:102950003F912F910F900FBE0F901F9018950895E3
:1029600080E090E00895DC01ED91FD91BD010190C2
:10297000F081E02D40E0099591E0811190E0892FF0
:102980000895CF92DF92EF92FF920F931F93CF9310
:10299000DF937C01262F972F8A0180919005882351
:1029A00091F0C62FD72F6E01C40ED51ECC15DD05B4
:1029B00071F06991D701ED91FC910190F081E02DCA
:1029C000C7010995F3CF642F822F0E94EA20C80126
:1029D000DF91CF911F910F91FF90EF90DF90CF90FB
:1029E0000895CF93DF931F92CDB7DEB7698320910F
:1029F00090052223D1F02091B305203240F021E050
:102A000030E0FC013383228380E090E015C08091A8
:102A10009105E82FF0E0EE56FA4F998190838F5F91
:102A2000809391058093B30505C061E0CE010196C6
:102A30000E94EA2081E090E00F90DF91CF9108950D
:102A40000F931F93CF93DF93EC01062F142F8A89E6
:102A5000813120F4882329F0411103C00E94E62728
:102A60001A8A8A89811113C0898991E0909390050F
:102A70008093B205109291051092B305112311F0C5
:102A800060E401C060E085E395E00E94F114602FEE
:102A900085E395E00E94F114123021F48A898F5F5A
:102AA0008A8B03C00E94E6271A8ADF91CF911F917B
:102AB0000F910895CF93DF93DC0110929F02613450
:102AC000710510F060E470E040E091E0EB012197C7
:102AD000242F30E026173707D8F4FD01E20FF31F4B
:102AE00050814F5FF901E35AFD4F503211F05A30D7
:102AF00069F41082943060F72C173D0748F7E92FEE
:102B0000F0E0E156FD4F40839F5FE2CF5083E0CF7E
:102B1000FB01E35AFD4F10826F5F60939E02943079
:102B200038F4E92FF0E0E156FD4F10829E5FF7CFB9
:102B3000DF91CF91089508958EBD00000DB407FE7A
:102B4000FDCF8EB508958CBD9DBD08951F93CF9385
:102B5000DF93EC01162F8A899B890E94A31560E000
:102B60008E850E94CB1C812F80680E949C1580E07E
:102B70000E949C15182F61E08E850E94CB1C812F2E
:102B8000DF91CF911F910895EF92FF921F93CF9302
:102B9000DF931F92CDB7DEB77C01162FFC0182892F
:102BA000938949830E94A31560E0F70186850E94FE
:102BB000CB1C812F0E949C154981842F0E949C155B
:102BC00061E0F70186850F90DF91CF911F91FF9013
:102BD000EF900C94CB1C8F929F92AF92CF92EF927A
:102BE000FF920F931F93CF93DF9300D000D01F92DB
:102BF000CDB7DEB74C0182E08D8340E064E2C401D2
:102C00000E94C41540E066E2C4010E94C41546E279
:102C100068E4C4010E94C41586E28C838D818230F1
:102C200040F16CE1C4010E94A615482F4F776CE17A
:102C3000C4010E94C41587E08B83A12CC12CCE0156
:102C400003967C018E010B5F1F4F9E012F5F3F4F4C
:102C500041E0BE016C5F7F4FC4010E947824811166
:102C60000BC08D81823039F481E09B81911104C0C9
:102C700008C084E001C081E091E0823019F090E06A
:102C800001C091E0892F0F900F900F900F900F903F
:102C9000DF91CF911F910F91FF90EF90CF90AF9068
:102CA0009F908F900895CF92DF92EF92FF920F93B3
:102CB0001F93CF93DF93EC016B01142F790140E058
:102CC00062E00E94C41544E06AE0CE010E94C4158F
:102CD00040E864E1CE010E94C415A601612FCE0137
:102CE0000E943C2443E062E0CE010E94C41508E843
:102CF00013E16AE0CE010E94A61582FF13C040E0F6
:102D000062E0CE010E94C41564E4CE010E94A615C3
:102D1000F701808362E4CE010E94A615F70181834A
:102D200080E004C00150110921F783E0DF91CF91C9
:102D30001F910F91FF90EF90DF90CF9008958F92A9
:102D40009F92AF92BF92CF92DF92EF92FF920F933A
:102D50001F93CF93DF93CDB7DEB7C65DD3400FB6D9
:102D6000F894DEBF0FBECDBF1092A3020E94BA2717
:102D70006CEE74E085E595E00E94901CE0914E05B4
:102D8000EF77E13408F027C2F0E0ED57FE4F808185
:102D9000863009F020C280E490E0CD52DC4F998368
:102DA0008883C35DD34082E693E0CF52DC4F9983A2
:102DB0008883C15DD3408091570590915805CB55CC
:102DC000DC4F99838883C55AD34080915905C955F2
:102DD000DC4F8883C75AD34080915A05C855DC4FD1
:102DE0008883C85AD34080915B05C755DC4F8883E0
:102DF000C95AD34080915C05C655DC4F8883CA5AB6
:102E0000D34080915D05C555DC4F8883CB5AD340B4
:102E100080915E05C455DC4F8883CC5AD3408091A5
:102E20005F05C355DC4F8883CD5AD3408091600540
:102E3000C255DC4F8883CE5AD34080916105C1557D
:102E4000DC4F8883CF5AD34080916205909163050F
:102E5000C055DC4F99838883C05BD3408091640563
:102E6000CE54DC4F8883C25BD34080916505CD543E
:102E7000DC4F8883C35BD3408EEF91E0CD55DC4FB0
:102E800099838883C35AD34080916605CC54DC4F24
:102E90008883C45BD34080916705CB54DC4F888323
:102EA000C55BD3407E018DE9E81A8CEFF80A8E01EC
:102EB0000D521C4F9701AE014F525C4FBE016F5F28
:102EC0007F4FCE018D559C4F0E94BF2597FF12C0AA
:102ED0006BEE74E085E595E00E94901C6AEE74E06C
:102EE00085E595E00E94901C82E08093650560EE88
:102EF00074E082C10E94BA27CD52DC4F688179818B
:102F0000C35DD3406430710508F472C0F70180815D
:102F1000863409F06DC081818C3409F069C08281EA
:102F2000813409F065C08381873409F061C0E1E232
:102F3000CE2EE2E0DE2ED701F60180E090E04D914A
:102F40002191019650E0022E000C330B28273927DF
:102F50004217530769F06AEC74E085E595E00E943A
:102F6000901C64EB74E085E595E00E94901C06C01F
:102F70008031910519F08617970709F7CD52DC4F7C
:102F800088819981C35DD340409720F482E392E029
:102F90000E94D52786E592E00E94D52700E010E048
:102FA000CD52DC4F88819981C35DD3400817190742
:102FB000D0F4F70161917F01F60181916F010F5FFC
:102FC0001F4F262F30E0082E000C990B80279127E9
:102FD0002817390709F06AE285E595E00E942A1E64
:102FE00000311105E9F685E595E00E948C1C0BC1C6
:102FF00060EB74E085E595E00E94531C8701CD529B
:10300000DC4F28813981C35DD340C8018E199F09E7
:103010008217930740F4F80161918F0185E595E0EF
:103020000E942A1EECCF85E595E00E948C1C8091C1
:10303000D4049091D504892B09F0B9C0CB52DC4F50
:1030400019821882C55DD34029E435E0DE01AC5316
:10305000BC4FAD01485F5F4F8D01F90162919F0147
:10306000862F90E074E0959587957A95E1F78D5BD2
:103070009D4FFC0180818C93E62FEF70F0E0ED5BBB
:10308000FD4F808111968C9311971296A417B50766
:1030900021F78EE2F801808786E7818783E68287C1
:1030A00086E6838714866FE974E085E595E00E94E3
:1030B000901CC8010E94D527CF52DC4F488159810E
:1030C000C15DD3409E012B523C4FBE016F5F7F4FCD
:1030D000C8010E945A08CF52DC4F28813981C15D56
:1030E000D340CB52DC4F88819981C55DD3402817EE
:1030F0003907C1F168E974E085E595E00E94531C49
:10310000CB52DC4F28813981C55DD34040E050E08F
:10311000CD53DC4F1882C35CD34003EA13E00C0F9D
:103120001D1F005E1F4F8AE0882E912CA12CB12C10
:10313000CA01B901A50194010E944630605DF80101
:1031400062938F01211531054105510589F7BF01B2
:1031500085E595E00E94771C6DE874E085E595E0D3
:103160000E94531C80919E0281110EC0CD52DC4FF3
:1031700048815981C35DD3409E012D553C4FB70115
:1031800088E092E00E945A086CE874E085E595E0DA
:103190000E94901C82E08093650561E874E085E5FB
:1031A00095E00E94901C81E08093650506C06CE666
:1031B00074E085E595E00E94901C80919E0281114B
:1031C00022C0CD52DC4F68817981C35DD340C701F5
:1031D0000E945A1518C068E574E085E595E00E94E4
:1031E000901C67E574E085E595E00E94901C82E004
:1031F000809365056DE474E085E595E00E94901C80
:1032000081E08093650580E589831A829E012D5FA8
:103210003F4F42E0BE016F5F7F4F81E495E00E9427
:103220005316811110C0A12CC12CE12CF12C00E00F
:1032300010E020E030E044E0BE016F5F7F4F81E4AA
:1032400095E00E94782460ED77E080E090E00E94B5
:10325000371DCA52DC4F0FB6F894DEBF0FBECDBF8C
:10326000DF91CF911F910F91FF90EF90DF90CF9062
:10327000BF90AF909F908F9008952F923F924F9262
:103280005F926F927F928F929F92AF92BF92CF92F6
:10329000DF92EF92FF920F931F93CF93DF93CDB7FF
:1032A000DEB72D970FB6F894DEBF0FBECDBF413508
:1032B00008F00EC1342E3B014C016CE10E94A615B2
:1032C000482F4F776CE1C4010E94C415BB24B3940E
:1032D00042E0B41691F083E0B816E1F091E0B91243
:1032E000FBC083E989833320D1F081E0F301908131
:1032F000953008F480E0D12C17C085E9898333200C
:1033000081F081E0F3019081983008F480E0A3E03F
:10331000DA2E0AC087E98983F6E0DF2E04C0D12CBB
:1033200002C0E3E0DE2E80E0532DF8EFDF9E500D6B
:10333000112457FD50E0882321F098E89B8343E057
:1033400001C042E021E0952F977009F420E0952F0D
:10335000959595959595290F21F4882311F1585F3E
:1033600020C0811102C094E001C093E0291708F445
:10337000922F20E030E06D2D70E0E42FE20FA1E00D
:10338000B0E0AC0FBD1FAE0FB11DF901E60FF71F86
:10339000E60DF71DE181EC932F5F3F4F291768F38E
:1033A000DCCF73E0272E5032FCF040E74A839C814B
:1033B0008B8189279D8189279E8189278F839E0103
:1033C000285F3F4F47E0BE016F5F7F4FC4015D87BD
:1033D0000E9453165D858111CBC01B862A86CE01C3
:1033E00007962C0179E01EC0952F97709B87252F9B
:1033F00025952595259582E0820F392FE0E18E9F56
:10340000300D11243A8371E0911101C070E0780F02
:1034100044244394512C4C0E5D1E480E511C87E0F1
:10342000821B8A87CB844C2D4295407F4C0D6AE1EC
:10343000C4015D877C870E94C415A12CCE010B9628
:103440007C018E01065F1F4F92017C85472FBE01D4
:103450006F5F7F4FC4010E9478245D85823091F5B3
:103460006CE1C4010E94A6155D8585FD33C08F7196
:1034700009F480E290E0252F052E000C330B28176D
:10348000390754F501979C012770332743E0959540
:1034900087954A95E1F78F5F91E02115310509F491
:1034A00090E0890FE1E0F0E0EC0FFD1FE80FF11D67
:1034B00081E090E001C0880F2A95EAF79081892B7E
:1034C000808371CF811154C0503244F450E26DCFEB
:1034D00086E04EC082E04CC085E04AC08B818838CF
:1034E00009F043C033E023E080E090E06D2D70E010
:1034F000FC01E60FF71FE60DF71D432F480FA1E073
:10350000B0E0AC0FBD1FA40FB11D4C9141830196DB
:10351000821770F38A85833021F58B85811121C054
:103520009E012D5F3F4F41E0B201C4010E9453163E
:1035300081111EC09B81F2018181981314C09C816E
:103540008281981310C0808182FF02C0B394C0CEE4
:10355000F30183878B2D880FB80EB394B08280E07F
:1035600007C081E005C087E003C032E024E0BCCFA3
:103570002D960FB6F894DEBF0FBECDBFDF91CF9171
:103580001F910F91FF90EF90DF90CF90BF90AF9081
:103590009F908F907F906F905F904F903F902F9073
:1035A00008950F931F93CF93DF93EC010E94600A5D
:1035B0008C01892B09F08FC08C8185FF8CC04A8DCE
:1035C0005B8D6C8D7D8D888199810E94A00A00970A
:1035D00009F080C0EE8DFF8D8385806283878A85A8
:1035E0009B85AC85BD85848F958FA68FB78F8E8583
:1035F0009F85A889B989938F828FB58BA48B80E032
:1036000090E0ACE2BDE4868B978BA08FB18F138ADC
:10361000128A8C818F7D8C83E881F98181E084839B
:103620000990D881C02D40E050E0BA01CE010E943F
:10363000A00A009709F04EC08881833009F04BC082
:103640008D81882309F447C01AA61BA61CA61DA6B7
:103650009E01225D3F4FF901CE01825D9D4FE8172B
:10366000F90711F01192FBCFFE01E45DFD4F85E5F6
:103670009AEA9183808382E592E5A1E6B1E48EA780
:103680009FA7A8ABB9AB7A9782E792E7A1E4B1E62E
:1036900080839183A283B38334968E859F85A88986
:1036A000B98980839183A283B38334968A859B856D
:1036B000AC85BD8580839183A283B3836A897B892E
:1036C0008C899D8941E050E00E94DF071D8200E067
:1036D00010E001C08C01C801DF91CF911F910F91C3
:1036E0000895CF93DF93EC010E94D11A009711F453
:1036F00019821882DF91CF910895CF92DF92EF92D5
:10370000FF920F931F93CF93DF936C017A018B018C
:10371000C0E0D0E0CE15DF0589F0D8016D918D01B4
:10372000D601ED91FC910190F081E02DC601099543
:10373000892B11F47E0102C02196ECCFC701DF91E5
:10374000CF911F910F91FF90EF90DF90CF90089550
:1037500090E0FC013197EF30F105B0F5E05AFF4FF2
:103760000C946830809180008F7703C08091800036
:103770008F7D80938000089580918000877FF9CFAE
:1037800084B58F7702C084B58F7D84BD0895809104
:1037900090008F7707C0809190008F7D03C080914B
:1037A0009000877F8093900008958091C0008F776C
:1037B00003C08091C0008F7D8093C00008958091E8
:1037C000C200877F8093C20008953FB7F89480912C
:1037D000310590913205A0913305B091340526B59D
:1037E000A89B05C02F3F19F00196A11DB11D3FBF39
:1037F000BA2FA92F982F8827820F911DA11DB11DC7
:10380000BC01CD0142E0660F771F881F991F4A95C2
:10381000D1F70895CF93DF93EC019C818E819817A7
:1038200068F4E881F9818F8568270084F185E02DAF
:1038300042E0CE0109958C818F5F8C83DF91CF911F
:10384000089585ED8093BC008091BC0084FDFCCF81
:1038500010928F050895089581E090E030915C0208
:1038600020915B02321710F480E090E091958195F1
:103870009109089580915C0290915B02891730F460
:103880008F5F80935C0280E090E008958FEF9FEF60
:10389000089580915B0290E020915C02821B910967
:1038A00008950E948830EF92FF920F931F93CF9359
:1038B000DF938C017B01C0E0D0E0F701EC0FFD1F2E
:1038C0006491662361F0D801ED91FC910190F08143
:1038D000E02DC8010995892B11F02196EECFCE017C
:1038E000DF91CF911F910F91FF90EF900895611597
:1038F000710579F0FB0101900020E9F73197AF01E4
:10390000461B570BDC01ED91FC910280F381E02D09
:10391000099480E090E0089564E572E00C94771CCF
:103920000F931F93CF93DF93EC010E94531C8C01E4
:10393000CE010E948C1C800F911FDF91CF911F91AF
:103940000F910895CF93DF93282F30E0F901E95DBF
:10395000FA4F8491F901E85BFE4FD491F901E959DE
:10396000FE4FC491CC2391F081110E94A81BEC2F33
:10397000F0E0EE0FFF1FE75EFA4FA591B491EC91D6
:10398000ED2381E090E021F480E002C080E090E04F
:10399000DF91CF9108951F93CF93DF93282F30E0CD
:1039A000F901E95DFA4F8491F901E85BFE4FD4918A
:1039B000F901E959FE4FC491CC23C9F0162F8111AA
:1039C0000E94A81BEC2FF0E0EE0FFF1FE55FFA4FFF
:1039D000A591B4918FB7F894111105C09C91ED2F6A
:1039E000E095E92302C0EC91ED2BEC938FBFDF91C2
:1039F000CF911F910895CF93DF9390E0FC01E85B96
:103A0000FE4F2491FC01E959FE4F8491882361F116
:103A100090E0880F991FFC01E65CFE4FC591D491A0
:103A2000FC01E55FFA4FA591B491611109C09FB700
:103A3000F8948881209582238883EC912E230BC0F3
:103A4000623061F49FB7F8943881822F8095832388
:103A50008883EC912E2B2C939FBF06C08FB7F894D0
:103A6000E8812E2B28838FBFDF91CF9108958F920D
:103A70009F92AF92BF92CF92DF92EF92FF926B0133
:103A80007C010E94E51B4B015C01C114D104E104DF
:103A9000F104F1F00E94E51BDC01CB0188199909C2
:103AA000AA09BB09883E9340A105B10570F321E046
:103AB000C21AD108E108F10888EE880E83E0981E4A
:103AC000A11CB11CC114D104E104F10419F7DDCF2C
:103AD000FF90EF90DF90CF90BF90AF909F908F902E
:103AE00008951F920F920FB60F9211242F933F93B8
:103AF0008F939F93AF93BF9380912D0590912E0547
:103B0000A0912F05B091300530912C0523E0230FB3
:103B10002D3720F40196A11DB11D05C026E8230F05
:103B20000296A11DB11D20932C0580932D05909325
:103B30002E05A0932F05B09330058091310590910B
:103B40003205A0913305B09134050196A11DB11D38
:103B50008093310590933205A0933305B0933405DB
:103B6000BF91AF919F918F913F912F910F900FBE79
:103B70000F901F901895DC01ED91FC910084F18568
:103B8000E02D40E00994FC01878186958695869515
:103B9000681740F465839385690F6770606BCF0188
:103BA0000C94BB1D08950F931F93CF93FC012681A6
:103BB0006217A0F4C62F8C0164839085C90F6C2F07
:103BC0006F70CF010E94BB1D6C2F62956F7060619A
:103BD000C801CF911F910F910C94BB1DCF911F91E4
:103BE0000F910895CF92DF92EF92FF920F931F9360
:103BF000CF93DF93EC01F62EC42ED22E8F818695C3
:103C000086958695081710F00FEF080F1D2D6F2D64
:103C1000CE01011788F00E94D31D612FCE010E94B2
:103C2000C31DEF2CCE1430F06F85CE010E940A1C0C
:103C3000E394F8CF1F5FEBCF0E94D31D6D2DCE0113
:103C4000DF91CF911F910F91FF90EF90DF90CF9078
:103C50000C94C31D2F923F924F925F926F927F926E
:103C60008F929F92AF92BF92CF92DF92EF92FF928C
:103C70000F931F93CF93DF93CDB7DEB727970FB680
:103C8000F894DEBF0FBECDBFFC01A585B6851097A9
:103C900009F454C19F838E83FD013296549031966E
:103CA0007491E72EF12CF7E0EF0EF11C23E0F59470
:103CB000E7942A95E1F7E982FD01349694913196D3
:103CC000E491691758F0462F50E02E2F30E0F901AB
:103CD000E90FF11D4E175F070CF46AC06D3031F427
:103CE00060E08E819F810E94D31D2BC16A3009F054
:103CF00025C160E08E819F810E94D31DAE81BF816E
:103D000050960C9150970E9DE02C112417962C91F3
:103D1000179726952695269515966C9115976E0DF5
:103D20008E2D821B860F1C969C91992309F401C14C
:103D300018160CF0FEC0EE81FF819385890F877005
:103D400083872E1925830584F685E02D309769F049
:103D50003396E491F0E0379693E0F595E7959A95E0
:103D6000E1F70E9FE02D112401C0E0E00FEF020FFC
:103D70000E0FEE81FF81468141506481CF010E9488
:103D8000F21DAE81BF811C968C911C97813009F089
:103D9000D8C01B966C911B97660F660F660F6F73EA
:103DA0001A966C931A976064CD010E94BB1DC9C01E
:103DB000AD014A5F5F4F691BEE81FF81908981856C
:103DC000989F802D11248C83FD011491319684914C
:103DD00090E0912B029770F45E9CC0015F9C900D67
:103DE0001124689F8001699F100D1124040F151F75
:103DF000412C24C0E72FE77021F088E0482E4E1AAE
:103E000001C0412CA42FFA0180E090E07E2F7A1BA4
:103E1000761728F47491870F911D3196F7CFFA0128
:103E2000E60FF11D54908E9D80018F9D100D9E9D7B
:103E3000100D1124020F131F040F151FAE81BF8137
:103E40001496BC91BA83EE81FF81F581FB83852CAA
:103E5000912CCC24C394D12CA12CB12C22242A94B3
:103E60002C0CE9812E1608F063C0312CAE81BF8185
:103E700050968C91381608F055C0211002C033209E
:103E800079F0AE81BF8115967C90159773946A8105
:103E9000CD010E94D31D672D8E819F810E94C31D7D
:103EA000612C712C651488F5F301EA0DFB1DE00F00
:103EB000F11F2491442061F0CE14DF0449F4E22F75
:103EC000F0E0042C02C0F595E7950A94E2F72E2F56
:103ED000EE81FF818089823079F4E22F3110E29502
:103EE000EF70F0E0E550FB4F2491622F8E819F81AF
:103EF0002D830E940A1C2D81622F8E819F810E943A
:103F00000A1CFFEF6F1A7F0ACDCF712C8C817816B7
:103F100039F060E08E819F810E940A1C7394F6CF75
:103F20003394A4CFA80CB91CBFEFCB1ADB0A96CFF1
:103F30006B818E819F810E94C31D03C080E090E051
:103F400002C081E090E027960FB6F894DEBF0FBE66
:103F5000CDBFDF91CF911F910F91FF90EF90DF9038
:103F6000CF90BF90AF909F908F907F906F905F9019
:103F70004F903F902F9008951F920F920FB60F927F
:103F800011242F933F934F935F936F937F938F935E
:103F90009F93AF93BF93EF93FF938091B900887F76
:103FA000803609F49CC068F5883209F45BC090F44F
:103FB000803109F454C038F4882309F4F6C08830FD
:103FC00009F44DC0F6C0883109F44CC0803209F4C0
:103FD0005DC0EFC0803409F468C048F4803309F450
:103FE00055C0883309F0E5C080938D05D8C0803571
:103FF00009F44FC0883509F45DC0883409F0D9C090
:10400000D6C0883909F4C7C0A8F4883709F467C056
:1040100038F4883609F463C0803709F460C0C9C039
:10402000883809F4B8C0803909F45FC0803809F0D5
:10403000C0C05BC0803B09F486C038F4803A09F404
:1040400066C0883A09F47FC0B4C0803C09F4A7C0B8
:10405000883C09F4A4C0883B09F48AC0AAC08091B6
:104060006A0510C090918C0580918B05981770F5AA
:10407000E0918C0581E08E0F80938C05F0E0E5598E
:10408000FA4F80818093BB0085EC86C080938D05BC
:104090008EC0E0918C0581E08E0F80938C0580911D
:1040A000BB00F0E0E559FA4F808390918C05809138
:1040B0008B056EC0E0918C0581E08E0F80938C059E
:1040C0008091BB00F0E0E559FA4F808380918E0526
:1040D00081116DC081E08093690584EA61C083E04D
:1040E00080938F0510922B05CFCF80912B058032C6
:1040F00008F051C0E0912B0581E08E0F80932B05D5
:104100008091BB00F0E0E55FFA4F8083BDCF85EC86
:104110008093BC0010928F0580912B05803230F483
:10412000E0912B05F0E0E55FFA4F108260912B05DE
:1041300070E0E0910905F0910A058BE095E00995A2
:1041400010922B0536C084E080938F0510920805ED
:1041500010920705E0910505F091060509958091FB
:104160000705811105C081E0809307051092E504E1
:10417000E091080581E08E0F80930805F0E0EB5197
:10418000FB4F80818093BB009091080580910705CB
:10419000981708F479CF85E88093BC000AC085ECB5
:1041A0008093BC0010928F0504C010928D050E9470
:1041B000211CFF91EF91BF91AF919F918F917F91C2
:1041C0006F915F914F913F912F910F900FBE0F9084
:1041D0001F90189540910705262F30E0240F311DC0
:1041E00021323105DCF420918F052430C9F4FC0123
:1041F00080E090E0861758F4309107052191DC01AA
:10420000AB51BB4FA30FB11D2C930196F3CF8091FF
:104210000705680F6093070580E0089581E0089521
:1042200082E008959C0195E0369527959A95E1F7EF
:104230002EBD0DB407FEFDCF880F880F880F8EBDF1
:104240000DB407FEFDCF1EBC0DB407FEFDCF0895D3
:104250000F931F93CF93DF93EC011D821C824E813D
:104260005F8168857985413051056105710519F4D3
:1042700082E090E065C008811981F80186899789FC
:10428000A08DB18D481759076A077B0788F741153C
:10429000510561057105F1F48081833049F442A133
:1042A00053A164A175A1411551056105710591F4F2
:1042B0001A861B861C861D86F80180859185892BB0
:1042C000B9F282A193A1A4A1B5A18E879F87A88BE3
:1042D000B98B2DC0F801828181111EC0888199811E
:1042E0000E94330CAB01BC014F3FFFEF5F076F072C
:1042F0007F0721F1423051056105710508F4B8CFFF
:10430000E881F98186899789A08DB18D4817590771
:104310006A077B0718F3ACCF4A875B876C877D877A
:10432000C8010E94780A6E877F87888B998BC801A5
:104330008E969B8B8A8B80E090E002C081E090E0BB
:10434000DF91CF911F910F910895FC016081611160
:1043500002C081E008952481A181B2819381862FDA
:104360008F70873010F080E00895223010F442E022
:1043700001C046E0E8E0F0E020E0EA17FB0720F4A7
:104380002F5FEE0FFF1FF9CF2295207F422B661F74
:104390006627661F50E4959F90011124622B0E94AE
:1043A000E6038111D6CFDFCFAF92BF92CF92DF92DB
:1043B000EF92FF920F931F93CF93DF9340912401CD
:1043C00050912301609122017091210100912701F8
:1043D000C02F10912601D12F411520E2520761050F
:1043E000710568F080913F01807F856080933F0177
:1043F00081E28093490110924A0180E0EEC1E9E038
:10440000440F551F661F771FEA95D1F7882309F4DB
:10441000E5C06A017B0159E0F694E794D794C7940C
:104420005A95D1F75601C6010E94650782ED8EBDEF
:104430000DB407FEFDCFC6010E9412211EBC0DB4B3
:1044400007FEFDCF1EBC0DB407FEFDCF1EBC0DB494
:1044500007FEFDCF1EBC0DB407FEFDCF0E946A0310
:1044600081119AC17E0110E042EDD42EE114F104D5
:1044700009F4ACC000E28091E80085FF0AC0103268
:1044800049F53FEFA31AB30AC5010E946507DEBCD8
:104490000AC08091E8008E778093E8000E946A034A
:1044A000882369F379C10DB407FEFDCFC5010E94D1
:1044B00012211EBC0DB407FEFDCF1EBC0DB407FEBD
:1044C000FDCF1EBC0DB407FEFDCF1EBC0DB407FE14
:1044D000FDCF10E01EBC0DB407FEFDCF8EB580935E
:1044E000F1001EBC0DB407FEFDCF8EB58093F10028
:1044F0001EBC0DB407FEFDCF8EB58093F1001EBC2F
:104500000DB407FEFDCF8EB58093F1001EBC0DB437
:1045100007FEFDCF8EB58093F1001EBC0DB407FEE3
:10452000FDCF8EB58093F1001EBC0DB407FEFDCF0C
:104530008EB58093F1001EBC0DB407FEFDCF8EB585
:104540008093F1001EBC0DB407FEFDCF8EB58093A5
:10455000F1001EBC0DB407FEFDCF8EB58093F100B7
:104560001EBC0DB407FEFDCF8EB58093F1001EBCBE
:104570000DB407FEFDCF8EB58093F1001EBC0DB4C7
:1045800007FEFDCF8EB58093F1001EBC0DB407FE73
:10459000FDCF8EB58093F1001EBC0DB407FEFDCF9C
:1045A0008EB58093F1001EBC0DB407FEFDCF8EB515
:1045B0008093F1001F5F80913C018111EDC001509B
:1045C00009F059CF81E0E81AF10850CF8091E80056
:1045D00085FDE1C08091E8008E77DBC0DB01CA0178
:1045E00039E0B695A795979587953A95D1F77C01CF
:1045F0000E94650784E88EBD0DB407FEFDCF80E004
:1046000090E00E9412210E946A038111C5C05E01E0
:10461000D12C10E0CC24C394A114B10409F4A2C09D
:1046200000E28091E80085FF03C0103279F50AC0EE
:104630008091E8008B778093E8000E946A038823CA
:10464000A1F3AAC00E945507D11002C083E801C09F
:1046500086E88EBD0DB407FEFDCFC7010E94122172
:104660009FEFE91AF90A8E9BDC24C7010E946507B7
:10467000D11002C084E801C087E88EBD0DB407FEEA
:10468000FDCF80E090E00E94122110E08091F100C7
:104690008EBD0DB407FEFDCF8091F1008EBD0DB42F
:1046A00007FEFDCF8091F1008EBD0DB407FEFDCF5A
:1046B0008091F1008EBD0DB407FEFDCF8091F10019
:1046C0008EBD0DB407FEFDCF8091F1008EBD0DB4FF
:1046D00007FEFDCF8091F1008EBD0DB407FEFDCF2A
:1046E0008091F1008EBD0DB407FEFDCF8091F100E9
:1046F0008EBD0DB407FEFDCF8091F1008EBD0DB4CF
:1047000007FEFDCF8091F1008EBD0DB407FEFDCFF9
:104710008091F1008EBD0DB407FEFDCF8091F100B8
:104720008EBD0DB407FEFDCF8091F1008EBD0DB49E
:1047300007FEFDCF8091F1008EBD0DB407FEFDCFC9
:104740008091F1008EBD0DB407FEFDCF1F5F8091FB
:104750003C01811121C0015009F063CF01E0A01A92
:10476000B1085ACF0E945507D11002C083E801C09A
:1047700086E88EBD0DB407FEFDCFC7010E94122151
:104780000E9455078091E80085FD05C08091E800F2
:104790008B778093E8008E9ACE01A0E0B0E029E00C
:1047A000880F991FAA1FBB1F2A95D1F740911801A6
:1047B0005091190160911A0170911B018A019B01AE
:1047C000081B190B2A0B3B0B0093180110931901BE
:1047D00020931A0130931B0181E0DF91CF911F914B
:1047E0000F91FF90EF90DF90CF90BF90AF90089522
:1047F0000F931F93CF93DF93EC010E946A03811103
:104800001BC0239604E010E08091E80085FD0AC0FB
:104810008091E8008E778093E8000E946A038823E5
:1048200039F00AC088818093F10021970150110965
:104830000115110549F780E0DF91CF911F910F918C
:104840000895CF93DF93EC01209791F08091E800D9
:1048500085FD0AC08091E8008E778093E8000E9471
:104860006A03882389F305C01092F1002197ECCFE9
:1048700080E0DF91CF910895CF92DF92EF92FF9287
:104880000F931F93CF93DF9300D0CDB7DEB78C018A
:10489000F62EFC018289938949835A830E94A315CD
:1048A00060E0F80186850E94CB1C82E10E949C1585
:1048B0004981E42EC42E5A81D52E8C2D8E198F1548
:1048C00030F4F60181916F010E949C15F6CF61E0F2
:1048D000F80186850E94CB1C0F900F90DF91CF913D
:1048E0001F910F91FF90EF90DF90CF900C949B154C
:1048F0004F925F926F927F928F929F92AF92BF92F0
:10490000CF92DF92EF92FF920F931F93CF93DF939B
:1049100000D0CDB7DEB74C012B01D42E3901E11404
:10492000F10419F0F701408101C040E0B42EF0E13C
:10493000CF9EB00C112440E062E0C4010E94C41577
:104940004FE768E0C4010E94C41540E864E1C40177
:104950000E94C415A2016D2DC4010E943C244B2D60
:104960006AE1C4010E94C4154CE062E0C4010E94E7
:10497000C4156AE1C4010E94A615482F40686AE187
:10498000C4010E94C41580ED482E87E0582E68E0CF
:10499000C4010E94A615982F907341F480FD04C0B5
:1049A00081E0481A510899F783E0A1C06CE0C40186
:1049B0000E94A615D82E837109F098C06114710465
:1049C00009F45AC00115110509F456C064E1C40187
:1049D0000E94A615B82EF80180818B1508F480C0BE
:1049E000B082BB20F1F1F401828993890E94A31562
:1049F00060E0F40186850E94CB1C82E90E949C1530
:104A0000CC20A1F08FEF90E02C0101C0440CCA949F
:104A1000EAF782E90E949C1584214094F301908179
:104A2000492284298083CC24C39401C0C12CBA9428
:104A30004C2C512C460C571CCB1438F482E90E94A4
:104A40009C15F2018083C394F3CF80E00E949C15F3
:104A5000F201808361E0F40186850E94CB1C0E94F4
:104A60009B1568E1C4010E94A6158770E114F1044A
:104A700021F0F701808301C080E0D3FC33C06114D2
:104A8000710491F10115110579F1AA2069F1F8017C
:104A90004081413019F4843019F420C0423010F4C0
:104AA00087E025C08111FCCF42509E012F5F3F4F10
:104AB000B301C4010E945316811119C0F80180810D
:104AC000680E711CF3013297908189819813E8CFA9
:104AD000319690818A819813E3CF06C08FEF07C08B
:104AE00084E005C082E003C080E001C081E00F9057
:104AF0000F90DF91CF911F910F91FF90EF90DF907A
:104B0000CF90BF90AF909F908F907F906F905F906D
:104B10004F900895AF92CF92EF92FF920F931F9311
:104B2000CF93DF936115710501F1FA019081923104
:104B3000E0F08A01EB0190E3988389839B012E5F6B
:104B40003F4F42E081E495E00E94531681110EC070
:104B5000AA24A394C12CE12CF12C9E0144E0BE01B7
:104B600081E495E00E94782401C084E0DF91CF9138
:104B70001F910F91FF90EF90CF90AF9008952F92DB
:104B80003F924F925F926F927F928F929F92AF92DD
:104B9000BF92CF92DF92EF92FF920F931F93CF932A
:104BA000DF93CDB7DEB76D970FB6F894DEBF0FBEBB
:104BB000CDBF7C016B015D8B4C8B19011F8B0E8B64
:104BC00082E18B8BAE014D5E5F4FBE016F5F7F4F09
:104BD00083E00E948A25882319F063E376E0EFC022
:104BE0008981813E19F06FE176E0E9C08A81807F9A
:104BF000803119F06BE076E0E2C08B818E3618F0E0
:104C00006EEF75E0DCC08C81807F19F067EE75E097
:104C1000D6C08D81833019F063ED75E0D0C08E81F0
:104C20008F3F19F408E010E002C006E010E0E1E078
:104C3000F0E0EC0FFD1FE00FF11F8081982F9F7EA9
:104C4000923C19F06AEB75E0BAC0E2E0F0E0EC0FDC
:104C5000FD1FE00FF11F90819C3019F06EE975E0A7
:104C6000AEC0FE01E00FF11F84FF07C04380512C4E
:104C7000612C712C0D5F1F4F10C04580512C542C9E
:104C80004424FE01E00FF11F8681480E511C052CC3
:104C9000000C660877080A5F1F4F5801B694A79466
:104CA000B694A79403701127AE014D5E5F4FBE010D
:104CB0006F5F7F4F83E08A0D0E948A25882319F059
:104CC0006DE875E07CC0E1E0F0E0EC0FFD1FE00F67
:104CD000F11F8081843709F070C0E2E0F0E0EC0F52
:104CE000FD1FE00FF11F8081853609F066C0FE01CF
:104CF000E00FF11F8381883709F05FC0FE01E00FEC
:104D0000F11F8481843709F058C0F8013596DE011F
:104D1000A00FB11F15968C918F3209F04EC0D801AB
:104D2000169681E090E08C0F9D1FE80FF91F80819F
:104D3000883709F042C0F801379681E090E08C0F87
:104D40009D1FA80FB91F8C918D32B9F5D801189607
:104D500081E090E08C0F9D1FE80FF91F808186375E
:104D600061F5F801399681E090E08C0F9D1FA80F46
:104D7000B91F8C91833409F5D8011A9681E090E02F
:104D80008C0F9D1FE80FF91F80818136B1F4F80167
:104D90003B9681E090E08C0F9D1FA80FB91F8C916E
:104DA000823759F4045F1F4FA1E0B0E0AC0FBD1F84
:104DB000EA0FFB1F8081843641F061E775E0C7018F
:104DC0000E94901C8FEF9FEFBCC00370112726E05C
:104DD0002A0D2D8F812C912CD301C2010196A11D8A
:104DE000B11D888F998FAA8FBB8F80E1A82EB12C1F
:104DF000A40160E070E0888D998DAA8DBB8D481765
:104E000059076A077B0778F5AE014D5E5F4FBE011B
:104E10006F5F7F4F8D8D0E948A25882319F060E691
:104E200075E0CDCFA1E0B0E0AC0FBD1FA00FB11F6A
:104E3000F601E80DF91DA8014C195D094819590939
:104E40008D9181939A012E0F3F1F20313105C0F3C0
:104E50009501201B310B820E931E2D8D2C5F2D8F03
:104E600000E010E0C5CFF601E40DF51D80818E3F16
:104E700019F065E475E0A3CF108280E090E0530163
:104E80004201A5E08A1A9108A108B108AC0160E0CE
:104E900070E0481559056A057B0508F03FC09C0184
:104EA0002F5F3F4FF601E80FF91F40814A3009F0AC
:104EB00046C0AC014E5F5F4FF601E20FF31F208149
:104EC0002634D1F59C012D5F3F4FF601E40FF51F0D
:104ED00040814E34A1F50496F601E20FF31F2081C4
:104EE0002A3361F5482FF601E80FF91F282F241BFC
:104EF000019631913D3099F03A3089F0582F541B8A
:104F0000D101A20FB11D3C938C0120E030E00415CB
:104F100015052605370550F3252F01C020E0EC8943
:104F2000FD8951824082822F90E0AE89BF898D93A6
:104F30009C9380E090E005C09A0101C09C01C901EA
:104F4000A5CF6D960FB6F894DEBF0FBECDBFDF9133
:104F5000CF911F910F91FF90EF90DF90CF90BF9076
:104F6000AF909F908F907F906F905F904F903F9009
:104F70002F9008950F93CF93DF93C5E5D5E01B865F
:104F80001A8660E4CE010E94BB1D0F81069506952E
:104F9000069501504E81415020E060E0CE010E9414
:104FA000F21DDF91CF910F910895CF93DF93BC0154
:104FB00085E595E00E94771CEC0185E595E00E946F
:104FC0008C1C8C0F9D1FDF91CF9108952091B3050C
:104FD0009091B205213208F04AC080918F0581116D
:104FE000FCCF32E030938F0531E030938E053FEFF8
:104FF00030938D0510928C0520938B05A2E9B5E0C6
:105000004BE655E0FA013E2F341B321718F43D9160
:105010003193F9CF10926A0520916A05990F922B6E
:1050200090936A0590916905913061F41092690539
:1050300090916A059093BB009091BC0093FDF8CFCE
:1050400095EC01C095EE9093BC0090918F05923045
:10505000E1F390918D059F3F79F080918D0580322D
:1050600041F080918D05803331F084E005C081E00E
:1050700003C082E001C083E0109291051092B30555
:10508000109290050895CF93DF93CDB7DEB7C15648
:10509000D1090FB6F894DEBF0FBECDBF789484B5AA
:1050A000826084BD84B5816084BD85B5826085BD24
:1050B00085B5816085BD80916E00816080936E00B2
:1050C00010928100809181008260809381008091A4
:1050D0008100816080938100809180008160809355
:1050E0008000809191008260809391008091910076
:1050F0008160809391008091900081608093900006
:105100008091C10084608093C1008091C100826061
:105110008093C1008091C10081608093C100809123
:10512000C30081608093C3008091C000826080933F
:10513000C0008091C20081608093C20080917A009B
:10514000846080937A0080917A00826080937A00F4
:1051500080917A00816080937A0080917A008068E3
:1051600080937A0084B7877F84BF0FB6F894A895A0
:1051700080916000886180936000109260000FBE93
:1051800020E030E080E80FB6F8948093610020932F
:1051900061000FBE869A8E9A209A289A84B1866002
:1051A00084B923982B9A8DB581608DBD20988CE5AC
:1051B0008CBD8091D8008F7E8093D8008091D700DD
:1051C00081608093D70084E082BF81E08093D60421
:1051D0008091D8008E7F8093D8001092E2001092C8
:1051E000DA001092E1008091D8008F778093D80088
:1051F0008091D80080688093D8008091D8008F7DFE
:105200008093D80019BC1EBA10925A02109259020B
:10521000109258028091E0008B7F8093E000809193
:10522000D80081608093D80042E060E080E00E9476
:10523000E6038091E1008E7F8093E1008091E2009F
:1052400081608093E2008091E20088608093E200B8
:105250008091E0008E7F8093E0008091D800806193
:105260008093D8000E943C07C82E811101C0FFCF57
:105270008E9887ED8EBD0DB407FEFDCF1EBC0DB41C
:1052800007FEFDCF0EB401FC09C08E9AE091A40286
:10529000F091A5023097C9F0108217C00E944D0707
:1052A0008DE38EBD0DB407FEFDCF8AE28EBD0DB439
:1052B00007FEFDCF8FE78EBD0DB407FEFDCF8FEC4F
:1052C0008EBD0DB407FEFDCFE0CF1092A60286EA98
:1052D00092E09093A5028093A40240E068E072E01F
:1052E000CE0101960E94F90E8C010B7F011511056C
:1052F00059F4CE0101960E94711B1092A6021092E1
:10530000A5021092A40201C08C011093D504009351
:10531000D404789460E086E00E94FB1C60E089E0A1
:105320000E94FB1C10925C0210925B02109291058D
:105330001092B30510928F0581E080938E05109234
:10534000690561E082E00E94CB1C61E083E00E947D
:10535000CB1C8091B9008E7F8093B9008091B900F9
:105360008D7F8093B90088E48093B80085E48093B2
:10537000BC008CE08093B800109267058CE38093AA
:1053800066051092590510925A05E0EAF3E08591FE
:105390009491E82EE2EAF3E0F490E3EAF3E0E4919A
:1053A000E0935B05E4EAF3E0E491E0935C05E5EA71
:1053B000F3E0E491E0935D058C01802F8E198F1549
:1053C00048F4F801649185E595E00E94BB1D0F5FEC
:1053D0001F4FF3CF0E94BA27EAEBF1E0F093630589
:1053E000E09362058491EBEBF1E0E491F0E0F82BBF
:1053F000319709F0E4C210925E050E94BA2782E05C
:10540000809365056FEA71E085E595E00E94901C48
:1054100081E0809365056AEA71E085E595E00E9488
:10542000901C8091D4049091D5048D30910519F48D
:1054300067E971E004C0892B31F066E871E085E529
:1054400095E00E94901C1FB7F8948091D7048111B9
:1054500027C0E8E7F1E08491E9E5F1E09491E82FD5
:10546000F0E0EE0FFF1FE65CFE4FA591B491EC91CA
:10547000E92321F461E081E10E94CB1C61E081E13C
:105480000E94FB1C8CB580618CBD8CB580648CBD8A
:1054900061E08FE00E94FB1C61E080E10E94FB1C48
:1054A0008091D7048F5F8093D7041FBF80EA92E07A
:1054B00003E0080FA2960FAFA2978091DA04813023
:1054C00009F45BC28EB3843009F040C280910A01B6
:1054D0008F708093E9009091E80092FFFDC1809366
:1054E000E9001A8219820E946A03811109C0AE0183
:1054F0004F5F5F4F6FE070E080E191E00E94231406
:10550000853029F480913C01882369F3E5C18091BD
:10551000100190911101A0911201B09113018535F4
:105520009345A244B34479F490911D0180910F01F9
:10553000981748F480911C018F7129F480911E0105
:105540008150803180F08091EB0080628093EB008D
:10555000809105018F708093E9008091EB0080625B
:105560008093EB00B9C11A82198210911E010E942A
:105570006A03811109C0612F70E0AE014F5F5F4F78
:105580008FE191E00E942314853029F480913C0141
:10559000882359F3A1C18091E8008B778093E800BC
:1055A000DC2CCC2009F498C180911C0187FF05C038
:1055B000809105018F708093E90080911F018D31EA
:1055C00009F4C2C090F4823109F454C038F488233D
:1055D00009F4F4C0833009F48AC0F9C08A3109F4AF
:1055E000CCC08B3109F4EAC0F2C0883209F4BFC0E4
:1055F000D0F58E3109F4E2C0853209F0E8C08FEFB2
:105600009FE1A0E0B0E025968CAF9DAFAEAFBFAFFD
:10561000259700E012E020E030E009831A832B8315
:105620003C8340E050E064E070E0CE018F5B9F4F30
:105630000E94F82340E050E064E070E0CE01019663
:105640000E94F8238091E8008E778093E800809193
:10565000180190911901A0911A01B0911B010897AE
:10566000A109B109A2C08A3209F47FC08F3209F4BE
:10567000A5C0ADC0009123011091220180912001AD
:10568000837021F480912101882341F080913F01B2
:10569000807F856080933F0184E2A0C0780105325D
:1056A000110518F084E2E82EF12C40E050E0B7013B
:1056B0008FE491E00E949B030E946A03811105C060
:1056C000C8018E199F090E9421248091E8008E77DD
:1056D0008093E8008091180190911901A0911A011E
:1056E000B0911B018E199F09A109B1095EC0F0900C
:1056F0002301EF2C22E12F1510F4B2E1EB2E0E2D39
:1057000010E040E050E0B8018DE391E00E949B037F
:105710000E946A03811106C08F2D90E0801B910BBF
:105720000E9421248091E8008E778093E800809188
:10573000180190911901A0911A01B0911B018E19C5
:105740009109A109B10931C08091200182FF9ECF4A
:105750000E943C07811132C080913F01807F8460AC
:1057600080933F01109249013BC080E001C081E07D
:105770000E94D421811137C041C01092F1001092D3
:10578000F1001092F1001092F1008091E8008E7704
:105790008093E8008091180190911901A0911A015D
:1057A000B0911B010497A109B1098093180190934E
:1057B0001901A0931A01B0931B0115C01092180192
:1057C0001092190110921A0110921B010CC08091C5
:1057D0003F01807F856080933F0180E28093490193
:1057E00010924A010BC080913F01807F80933F015E
:1057F0001092490110924A0180E002C0D12C81E050
:1058000080933B0185E593E5A2E4B3E580932F0106
:1058100090933001A0933101B09332018091140133
:1058200090911501A0911601B09117018093330159
:1058300090933401A0933501B09336018091180103
:1058400090911901A0911A01B0911B018093370129
:1058500090933801A0933901B0933A01D11009C057
:10586000892B8A2B8B2B29F08091EB00806280930F
:10587000EB0080910A018F708093E9008091EB002A
:1058800085FF05C080913C018823C1F325C080912C
:1058900005018F708093E9008091EB0085FF05C0C2
:1058A00080913C018823C1F317C01A821982AE018E
:1058B0004F5F5F4F6DE070E08FE291E00E949B03CD
:1058C000853029F480913C01882389F305C08091BB
:1058D000E8008E778093E80080913C018823B1F145
:1058E00090910A019F7021E030E0092E01C0220F43
:1058F0000A94EAF72093EA001092EA0080910501E9
:105900008F7021E030E0082E01C0220F0A94EAF7E0
:105910002093EA001092EA009093E9009091EB0046
:1059200090619093EB009091EB0098609093EB0066
:105930008093E9008091EB0080618093EB0080917F
:10594000EB0088608093EB0010923C018EB38823BB
:10595000A1F01091E9001F709091EC00892F8170E7
:1059600090FD80E8182B1092E9008091E80083FDFB
:105970000E94DC041F701093E90080910001909157
:105980000101A0910201B09103010097A105B105A9
:10599000D1F02EB32430B9F00197A109B109809359
:1059A000000190930101A0930201B093030180E0F4
:1059B00090E0892B09F481CD0E94000077CD81E031
:1059C00080935E051ACD8091DA048111D2C12EB385
:1059D0008091D4049091D504243009F4BDC1892B61
:1059E00011F40E94BA2762EC73E085E595E00E940D
:1059F000901C8AE080934F058FEF8093500561E003
:105A00008AE00E94FB1C61E080914F050E94CB1C44
:105A1000809150058F3F09F4D8C260E00E94FB1CC2
:105A2000809150050E94A21C892B09F0CEC261E032
:105A3000809150050E94FB1C61E0809150050E94FE
:105A4000CB1C62E370E080E090E00E94371D0FC045
:105A5000115069F062E370E080E090E00E94371D31
:105A600062E081E495E00E94A61584FDF1CF40E05C
:105A700064E281E495E00E94C41540E066E281E4BE
:105A800095E00E94C41546E268E481E495E00E9436
:105A9000C41540E864E581E495E00E94C41549EA34
:105AA00066E581E495E00E94C41543E068E581E481
:105AB00095E00E94C41548EE6AE581E495E00E94F5
:105AC000C41540E46AE281E495E00E94C4154DE308
:105AD00062E281E495E00E94C41568E281E495E009
