:100000000C94C6050C94EE050C94EE050C94EE05CC
:100010000C94EE050C94EE050C94EE050C94EE0594
:100020000C94EE050C94EE050C94ED100C945C1100
:100030000C94EE050C94EE050C94EE050C94EE0574
:100040000C94EE050C94EE050C94EE050C94EE0564
:100050000C94EE050C94EE050C94EE050C94A31094
:100060000C94EE050C94EE050C94EE050C94EE0544
:100070000C94EE050C94EE050C94EE050C94EE0534
:100080000C94EE050C94EE050C94EE050C94EE0524
:100090000C948E130C94EE050C94EE050C94EE0566
:1000A0000C94EE050C94EE050C94EE05080B000282
:1000B0000202010009040000010202000005240000
:1000C0001001052401010104240206052406000193
:1000D0000705810310004009040100020A00000026
:1000E00007050202400000070583024000000403E8
:1000F000090412010002EF0201404F1B06920001A9
:1001000001020301537061726B46756E005370619A
:10011000726B46756E2050726F204D6963726F006E
:10012000000000002300260029002C002F0057416A
:10013000524E494E473A20436F6D6D756E6963614B
:1001400074696F6E206661696C7572652C206973C5
:1001500020746865204D4652433532322070726FEC
:100160007065726C7920636F6E6E65637465643F51
:100170000020004669726D77617265205665727362
:10018000696F6E3A2030780050494343207479708B
:10019000653A20003000436172642053414B3A209D
:1001A000002000203000F910209104000000000021
:1001B000000000000000000000043E00FF33FF3399
:1001C0003E000000000000000607000700000000DD
:1001D00000070007000000072001FE1FFE1F20018E
:1001E000FE1FFE1F20010738063C0E6408FF3FFF7C
:1001F0003F84091807071E30331C1E07C001701EFC
:100200001C33071E071E1FF331E120B3311E1F00F0
:100210001B8031020B0007000000000000000000FE
:10022000000004F007FE3F0F7801400000000000CE
:10023000000401400F78FE3FF007000000000000BE
:10024000078000A002E003C001E003A002800006D6
:1002500080008000E003E0038000800000000200D6
:10026000B0007000000000000000000000068000E8
:1002700080008000800080008000000002003000CC
:100280003000000000000000000000070038003EC1
:100290008007E00178001F00070007FC0FFE1F0326
:1002A00033C1203330FE1FFC0F0604200620FF3F21
:1002B000FF3F002000200000070C3C0E3E0323817E
:1002C00021C3207E203C20070C0C0E1C4330412013
:1002D0004330FE1FBC0F07000FE00FFC081F088310
:1002E0003F803F0008073F0C3F1C21302120613038
:1002F000C11F810F07E00FF81F5C304620C330811B
:100300001F010F0701000100013C813FF1037F0045
:100310000F00071C0FBE1FE3304120E330FE1F1CFF
:100320000F073C207E20C3308118830EFE07FC019E
:100330000260306030000000000000000000000299
:1003400060B0607000000000000000000000078046
:1003500000C00160033006180C0C180410062001C0
:100360002001200120012001200100000704100CC1
:1003700018180C30066003C0018000070600070053
:100380000333C133F3003F001E0007FC0FFE1F03C1
:1003900030E12311221321FE3307FC3FFE3F03010E
:1003A00001010301FE3FFC3F07FF3FFF3F412041AA
:1003B00020E330BE1F1C0F07FC0FFE1F033001207F
:1003C00003300E1C0C0C07FF3FFF3F0120012007EC
:1003D00038FE1FF80707FF3FFF3F41204120412023
:1003E0004120012007FF3FFF3F8100810081008104
:1003F00000010007FC0FFE1F0330812083308E1F99
:100400008C0F07FF3FFF3F400040004000FF3FFFD1
:100410003F0601200120FF3FFF3F01200120000097
:1004200007000C001C003000200030FF1FFF0F07EA
:10043000FF3FFF3FC000E0013C0F1F3E033007FFBE
:100440003FFF3F0020002000200020002007FF3F4A
:10045000FF3F7800C0037800FF3FFF3F07FF3FFFEB
:100460003F1C007000C001FF3FFF3F07FC0FFE1F55
:10047000033001200330FE1FFC0F07FF3FFF3F81C9
:10048000008100C3007E003C0007FC0FFE1F03300C
:10049000016003F0FE9FFC0F07FF3FFF3F810081DB
:1004A00001C31F7E3E3C20073C0C7E1C6330E120D4
:1004B000C3318E1F0C0F0601000100FF3FFF3F01FB
:1004C000000100000007FF0FFF1F00300020003078
:1004D000FF1FFF0F073F00FF01C00F003CC00FFFD1
:1004E000033F0007FF01FF3F003EC001003EFF3F0A
:1004F000FF01070F3C3F3FF003C000F0033F3F0FF9
:100500003C073F00FF00C001803FC03FFF007F006D
:1005100007013C013FC123E12031201F200F2004AF
:10052000FF3FFF3F012001200000000000000707FF
:10053000001F007800E0018007003E003804012021
:100540000120FF3FFF3F00000000000006040006FE
:100550000003000300060004000000070080008084
:10056000008000800080008000800606000F0009E7
:100570000009000F000600000007001E403F202178
:1005800020212011E03FC03F07FF3FFF3F401020E8
:10059000206030C01F800F07800FC01F60302020F8
:1005A00020206030401007800FC01F6030202040A6
:1005B00010FF3FFF3F07800FC01F603220226022E4
:1005C000C0338013062000FE3FFF3F2100230002BE
:1005D000000000078007C04F60D8209040C8E07F2F
:1005E000E03F07FF3FFF3F400020006000C03F802A
:1005F0003F0620202020E33FE33F002000200000B2
:1006000005004020C02080E3FFE37F0000000007DA
:10061000FF3FFF3F0007800DC0186030202006011B
:10062000200120FF3FFF3F00200020000007E03FA7
:10063000E03F6000C01F6000E03FC03F07E03FE0D8
:100640003F400020006000C03F803F07800FC01F78
:10065000603020206030C01F800F07E0FFE0FF40C7
:100660001020206030C01F800F07800FC01F202087
:1006700020204010E0FFE0FF07E03FE03FC00040E7
:100680000060006000400007C010E03120212023FE
:100690002026603C40180620002000FE1FFE3F2060
:1006A000202020000007E01FE03F00200020001075
:1006B000E03FE03F07E003E007001C0030001CE0E3
:1006C00007E00307E007E03F0038C0070038E03FDD
:1006D000E007076030E03D800F0007800FE03D60DD
:1006E0003007E083E08F00DC0070003CE00FE003A7
:1006F000072038203C20262023A021E02060200570
:100700008000FE3F7F7F014001400000000002FFAB
:10071000FFFFFF0000000000000000000005014096
:1007200001407F7FFE3F80000000000007020002C2
:10073000000100010002000200010007FF3FFF3F2F
:10074000033003300330FF3FFF3F07FC3FFE3F0312
:100750000101010341FEFFFCBF07F80FFC1F02303F
:10076000062003301C1C180C07FF3FFF3F412041AF
:1007700020416041E001A007FF3FFF3FC020602013
:1007800030201020002007FF3FFF3F1C007300C0F7
:1007900001FF3FFF3F07F80FFC1F02300620033028
:1007A000FC1FF80F07380C7C1C6230E620C3318C2C
:1007B0001F080F07023C063F8223C32062203E2011
:1007C0001E20074138413EC127E12179205F2047A3
:1007D0002007001E403F202120212051E0FFC0BF04
:1007E00007800FC01F603024202620623040100791
:1007F000800FC01F603220226062C0F38093060128
:10080000260123FF3FFF3F60203020000007E03F2C
:10081000E03F400024006600C23F803F07800FC0D9
:100820001F603024206630C21F800F07C010E031E7
:10083000202124232626623C4018072038203C240F
:10084000262623A221E0206020072038203C2626EF
:100850002623A021E0206020436172642055494492
:100860003A00FB082091030000000000025F5F00D7
:10087000000005030300030305147F147F140524FF
:100880004AFF4A3404617C1F43000100000000005D
:10089000040609090600033E7F41000003417F3E34
:1008A00000000514081C08140508083E0808038009
:1008B000C040000005080808080802606000000049
:1008C00004607C1F0300053E7F417F3E04427F7F22
:1008D0004000056273594F46052263497F36050F74
:1008E0000F087F7F054F4F497931053E7F497B32A5
:1008F000050171790F0705367F497F3605266F4957
:100900007F3E0228280000000380C8480000050838
:100910001C366341051414141414054163361C0875
:10092000050253590F06053E7F5D5F4E057E7F1120
:100930007F7E057F7F497F36053E7F416322057FAD
:100940007F417F3E057F7F494941057F7F0909013E
:10095000053E7F41793A057F7F087F7F027F7F00D8
:100960000000052161417F3F057F7F1C3663057FC5
:100970007F404040057F7E1C7E7F057F7E04087F90
:10098000053E7F417F3E057F7F111F0E053E7FC1E3
:10099000FFBE057F7F117F6E05266F497B32040104
:1009A0007F7F0100053F7F407F3F05071F781F07BE
:1009B000051F7F187F1F0563771C776305070F7876
:1009C0000F070571794D4743047F7F4141000503BF
:1009D000060C18300441417F7F000504060306041D
:1009E00005808080808003010302000005307A4A80
:1009F0007E7C053F7F447C3805387C444444053880
:100A00007C447F7F05387C545C18047E7F0901009C
:100A10000598BCA4FC58057F7F047C78027D7D008E
:100A200000000540C080FD7D057F7F386C44043F99
:100A30007F40400005787C187C78057C7C047C78BD
:100A400005387C447C3805FCFC243C1805183C2403
:100A5000FCFC057C7C040C0805485C5474240504EB
:100A60003F7F4440053C7C407C7C051C3C603C1C3A
:100A7000051C7C187C1C05446C106C44059CBCA0B7
:100A8000FC7C056474545C4C04083E774100027F92
:100A90007F0000000441773E0800040201020100CB
:100AA000057F4141417F057E7F91FF7E053C7E466B
:100AB0004342057F7F49C181057F7F484440057ED1
:100AC0007E0A7D7E053C7E467B3C05246E4E7B3255
:100AD0000562765B4E460569795D4F4B052074547F
:100AE000FCB805387C47454405387C54DC98051033
:100AF0003F7F4240057C7C077D7805387C477D3808
:100B000005485C577524056474575D4C056474553D
:100B10005C4C0000000200090F0000030401000CFF
:100B200000000000000000000000000000000000C5
:100B300000000000250028002B002E0031000000DE
:100B40000000240027002A002D00300004040404C3
:100B50000403040502020202040302020202060662
:100B60000606060604040202020404040802011038
:100B700040804010204080408008020401804020D6
:100B800010020110801020404020F81411241FBED4
:100B9000CFEFDAE0DEBFCDBF13E0A0E0B1E0E0E2EE
:100BA000FBE302C005900D92A630B107D9F724E00F
:100BB000A6E0B3E001C01D92A437B207E1F715E04B
:100BC000C6ECD5E004C02197FE010E948F1AC53CF7
:100BD000D107C9F70E9426150C948E1D0C940000B5
:100BE0008CBD9DBD08952091FB0381E0213208F06A
:100BF00044C08091D7038111FCCF8091FA0392E029
:100C00009093D70391E09093D6039FEF9093D503F1
:100C10001092D4032093D303AAEDB3E0E3EBF3E007
:100C200090E0291331C01092B2039091B203880F63
:100C3000892B8093B2038091B103813049F51092E2
:100C4000B1038091B2038093BB008091BC0083FD0F
:100C5000F8CF85EC8093BC008091D7038230E1F31C
:100C60008091D5038F3FB1F08091D5038032A1F000
:100C70008091D503803391F084E01092D9031092D3
:100C8000FB031092D80308953D9131939F5FC9CF24
:100C900085EEE0CF80E0F1CF82E0EFCF83E0EDCFD3
:100CA00090917204992309F452C0883909F43FC025
:100CB00090F4843869F130F4823841F1E0F58138FC
:100CC000C1F10895863889F108F43FC08738B9F03A
:100CD000833999F10895833B01F130F48A3979F130
:100CE00098F08B39E1F008958A3BD9F018F4893BEC
:100CF00041F108958B3B39F18C3BA9F008958BE0CD
:100D000010927204815808958CE0FACF8DE0F8CFEC
:100D100081E0953CA9F78EE0F3CF8FE0F1CF80E141
:100D2000EFCF81E1EDCF82E1EBCF82E0E9CF83E04D
:100D3000E7CF84E0E5CF85E0E3CF86E0E1CF87E051
:100D4000DFCF88E0DDCF89E0DBCF8AE0D9CF893BF8
:100D500009F441C0C8F48F3909F44BC048F48F3806
:100D6000B1F18C3909F443C08C3869F687E0CACFF9
:100D7000853A09F442C018F4833A19F108958F3A7C
:100D800041F1833B71F10895833DF9F058F4863CBD
:100D9000A1F018F48F3B79F108958A3C81F0813DF0
:100DA00091F008958A3ED9F018F4863EB1F0089586
:100DB000813FC9F0833FC9F0089582E0A3CF83E06B
:100DC000A1CF84E09FCF85E09DCF86E09BCF88E0D8
:100DD00099CF89E097CF8AE095CF8BE093CF8CE0D5
:100DE00091CF8DE08FCF8EE08DCF8FE08BCF80E1E4
:100DF00089CF81E187CF82E185CF81E083CFCF9317
:100E0000C62F9DE3980F933008F044C0809372047E
:100E100080E0E0916804F0916904309709F44FC0D4
:100E200090916D04891708F44AC020916E04281728
:100E300008F445C040916A0420916C04429FA001CF
:100E400011244F5F5F4F282F30E0B901691B7109F2
:100E5000469FC001479F900D569F900D1124049608
:100E6000E80FF91FE4918E2F90E0205331092A30CA
:100E7000310598F420917004E21790F021E030E001
:100E800050E040E0840F951FCC2311F0820F931F98
:100E9000CF9108950E945006BCCF20916F04ECCFF3
:100EA00030E0281B390BA90137FF02C04F5F5F4FAD
:100EB00055954795241B350B2F5F3F4FE3CF90E0AF
:100EC00080E0E6CFEF92FF920F931F93CF93DF93D3
:100ED0002091680430916904232B71F1009761F12E
:100EE000FC012081222341F18C01D0E0C0E0F80117
:100EF000F1908F01FF2059F0FFE1FF15C4F761E089
:100F00008F2D0E94FF06C80FD91FEF2CF0CF61E094
:100F10008E2D0E94FF068C0160E08E2D0E94FF0640
:100F2000081B190BCE01801B910BDF91CF911F91F4
:100F30000F91FF90EF90089590E080E0F6CF9C0134
:100F4000A6E6B4E013969C938E931297FC018491CD
:100F5000819514968C9314973196949115969C9341
:100F600015973196E4911796EC931797F9013396FC
:100F7000E4911896EC931897E92FF0E0379683E008
:100F8000F595E7958A95E1F71696EC9316971996DD
:100F90001C9219971A961C921A971B961C921B97D3
:100FA0001D961C92089590E0FC01E559F44F2491A0
:100FB000845B944FFC018491882399F090E0880F22
:100FC000991FFC01E25CF44FA591B491FC01E05D36
:100FD000F44F859194918FB7F894EC91E22BEC93B8
:100FE0008FBF0895FC018091B003882311F13FB7B2
:100FF000F89482E08093E9002091F200822F90E043
:101000001816190614F481E090E0882339F0289826
:1010100044E64093AF034091F1004083222339F02E
:101020002091F200211103C02BE62093E8003FBF7E
:1010300008958FEF9FEF08952FB7F89483E0809382
:10104000E9009091E800892F807295FF04C090918B
:10105000F20080E4891B2FBF08958091A7038111BE
:101060000DC082E08093A30384E08093A4031092D8
:10107000A6031092A50381E08093A70383EA93E07F
:10108000089581508F3008F047C0E82FF0E0E55B0D
:10109000F74F0C948F1A68086C085A0860086408A7
:1010A0008C088C088C086F08750879087D088308FF
:1010B0008C088708809180008F7780938000089546
:1010C000809180008F7DF9CF80918000877FF5CF60
:1010D00084B58F7784BD089584B58F7DFBCF8091D3
:1010E00090008F77809390000895809190008F7D7D
:1010F000F9CF80919000877FF5CF8091C0008F77E6
:101100008093C00008958091C0008F7DF9CF8091B9
:10111000C200877F8093C20008951F93CF93DF930F
:10112000282F30E0F901EE5EF44F8491F901E55982
:10113000F44FD491F901E45BF44FC491CC23A9F0AE
:10114000162F81110E944108EC2FF0E0EE0FFF1FD7
:10115000E05DF44FA591B4918FB7F894EC91111123
:1011600008C0D095DE23DC938FBFDF91CF911F9114
:101170000895DE2BF8CF3FB7F89480919F039091AC
:10118000A003A091A103B091A20326B5A89B05C01E
:101190002F3F19F00196A11DB11D3FBFBA2FA92FF6
:1011A000982F8827BC01CD01620F711D811D911DF3
:1011B00042E0660F771F881F991F4A95D1F708955F
:1011C0008F929F92AF92BF92CF92DF92EF92FF9257
:1011D0004B015C010E94BB086B017C010E94BB08B3
:1011E0006C197D098E099F09683E73408105910540
:1011F000A8F321E0821A9108A108B10888EEC80E70
:1012000083E0D81EE11CF11C81149104A104B104F7
:1012100029F7FF90EF90DF90CF90BF90AF909F9015
:101220008F9008950895089540916B0350916C0339
:101230002091690330916A0342175307B4F49091E7
:10124000E8009570E1F39091E80092FD19C0809359
:10125000F10080916B0390916C0301968F73992735
:10126000892B19F48EEF8093E80080916B039091A5
:101270006C03019690936C0380936B0381E0089557
:1012800080E00895EF92FF920F931F93CF93DF9327
:10129000F82E192FE62E042F81E0860F880F0E946A
:1012A000140983E00E941409CF2DD12FEC0EFD2EDE
:1012B000F11CCE15DF05B9F007FF13C0FE018491C4
:1012C0000E941409182F80E00E941409812321969E
:1012D0008111EFCFDF91CF911F910F91FF90EF9090
:1012E00008958881EDCF81E0F5CFDF92EF92FF92F4
:1012F0000F931F93CF93DF93D82E8A01EB017B01CD
:10130000E40EF51ECE15DF0559F0D7FE12C0FE0122
:1013100084910E94140921968111F4CF0FEF1FEFE1
:10132000C801DF91CF911F910F91FF90EF90DF9057
:1013300008958881EECF0F931F93CF93DF931F9271
:10134000CDB7DEB782E0898342E450E06CEA70E01A
:1013500080E80E9475090E942D08DC0112960D910B
:101360001C910115110589F0D801ED91FC910280C5
:10137000F381E02DBE016F5F7F4FC801099597FD96
:1013800004C0F80100851185ECCF89810F90DF91B1
:10139000CF911F910F910895615030F02091F1008D
:1013A000FC0120830196F8CF289884E68093AF0350
:1013B00008958F929F92AF92BF92CF92DF92EF9259
:1013C000FF920F931F93CF93DF936C017B018A01F0
:1013D00080910B01882309F45CC08091B0038823BD
:1013E00009F457C080916F0380FF05C08091E00031
:1013F00082608093E000E801B12C8AEFA82E93E090
:10140000892E2AE3922E209711F4BB20D9F10E9455
:101410001C0881110AC0AA94AA20D9F161E070E0E9
:1014200080E090E00E94E008EECF8C171D0611F0DE
:101430000CF08C2F9FB7F8948092E9002091E8007F
:1014400025FD02C09FBFDFCF282F30E0C21BD30B8A
:10145000F701815020F041914093F100FACFE20E64
:10146000F31EBB2021F09092E800B12CEBCF8091CD
:10147000E80085FDE7CF9092E800BB24B394209765
:1014800009F3F3CF5D9884E680936E03101611067E
:101490003CF081E090E0F6019383828310E000E06D
:1014A000C801DF91CF911F910F91FF90EF90DF90D6
:1014B000CF90BF90AF909F908F900895CF93DF9380
:1014C0001F92CDB7DEB76983DC01ED91FC910280FC
:1014D000F381E02D41E050E0BE016F5F7F4F099541
:1014E0000F90DF91CF9108950F931F93CF93DF93C8
:1014F0008C01D0E0C0E0F801EC0FFD1F6491662381
:1015000041F08CEF93E00E945E0A892B11F0219646
:10151000F2CFCE01DF91CF911F910F91089583E01B
:101520008093E9008091F200882319F08AE3809388
:10153000E80008950E941C0890E00895CF93DF937F
:101540001F92CDB7DEB7FC018485958597FD08C055
:101550002FEF3FEF358724870F90DF91CF910895CC
:10156000CE0101960E94F207019719F4898190E05B
:10157000F3CF8FEF9FEFF0CF0F931F93CF93DF93B6
:101580001F92CDB7DEB78C01FC018485958597FF4E
:101590000BC0CE0101960E94F207019771F4898178
:1015A00090E0F80195878487F801848595850F90F0
:1015B000DF91CF911F910F9108958FEF9FEFF1CFA2
:1015C000FC018485958597FD0BC09FB7F89482E058
:1015D0008093E9008091F2009FBF90E0019608950A
:1015E0009FB7F89482E08093E9008091F2009FBF5A
:1015F00090E0089585ED8093BC008091BC0084FD4F
:10160000FCCF1092D703089520914603260F33276D
:10161000331F21323105ECF42091D703FC0190E017
:1016200080E0243069F082E00895A0914603219182
:10163000AC014A5D5C4FA40FB52FB11D2C930196F0
:10164000861798F380914603680F6093460380E005
:10165000089581E008950895E091760380917503DF
:10166000E81730F4F0E0EA5FFC4F808190E00895E5
:101670008FEF9FEF089590917603809175032FEF80
:101680003FEF981748F4E92FF0E0EA5FFC4F208124
:1016900030E09F5F90937603C901089580917503B0
:1016A00090917603891B990B0895CF92DF92EF9268
:1016B000FF920F931F93CF93DF937C01CB018A019D
:1016C0002091D803222389F0EB016B01C40ED51EB3
:1016D000CC15DD0569F06991D701ED91FC91019080
:1016E000F081E02DC7010995F3CF642F0E94040B10
:1016F000C801DF91CF911F910F91FF90EF90DF9084
:10170000CF900895CF93DF931F92CDB7DEB7698353
:101710002091D8032223F9F02091FB03203258F0C6
:1017200021E030E0FC013383228390E080E00F90E1
:10173000DF91CF9108958091D903E82FF0E0E65230
:10174000FC4F998190838F5F8093D9038093FB0333
:1017500081E090E0ECCF61E0CE0101960E94040BA5
:10176000F7CF682F8CE494E00C94820BCF93C82FB2
:101770008091660491E09093D8038093FA031092CD
:10178000D9031092FB0390E080E00E94B10B6C2F14
:101790008CE494E00E94820BCF910C94F3050F939C
:1017A0001F93CF93DF93082F162FD42FC22F80E2E1
:1017B0000E94B60B81E00E94B60B81E20E94B60B3C
:1017C000802F0E94B60B8FEF8D0F800F0E94B60BFB
:1017D00082E20E94B60B812F0E94B60B8FEF8C0F16
:1017E000810FDF91CF911F910F910C94B60BBF9297
:1017F000CF92DF92EF92FF920F931F93CF93DF93DD
:10180000EC018A017901CF3FDC0761F4C0E8D0E048
:10181000C41BD50BD7FD11C0C038D10584F090E0B2
:1018200080E052C0D7FFF8CFC0E8D0E0C41BD50B92
:10183000D7FD2196D595C795EDCFD0E0C0E06830B3
:1018400071056CF7C8018C0F9D1F8138910524F03C
:1018500000E810E00C1B1D0BCB018E0D9F1D09979E
:101860002CF088E090E07C01E61AF70A2E2D402F3C
:101870008C2F0E94CF0BE09E6001E19ED00CF09E69
:10188000D00C1124F12CE12CBB24B394EC14FD04F6
:10189000C4F480916604B092D8038093FA03109246
:1018A000D9031092FB0380E490E00E94B10B90E01A
:1018B00080E00E94B10B0E94F3058FEFE81AF80A4E
:1018C000E5CFCE01800F911FDF91CF911F910F9136
:1018D000FF90EF90DF90CF90BF900895FF920F930D
:1018E0001F93CF93DF9328E040E860E080E00E9400
:1018F000CF0BC0E4D0E0FF24F39480916604F09213
:10190000D8038093FA031092D9031092FB0380E46A
:1019100090E00E94B10B04E010E090E080E00E94B3
:10192000B10B90E080E00E94B10B90E080E00E945B
:10193000B10B90E080E00E94B10B0150110969F7F2
:101940000E94F3052197C9F6DF91CF911F910F9166
:10195000FF9008952F923F924F925F926F927F92E5
:101960008F929F92AF92BF92CF92DF92EF92FF92AF
:101970000F931F93CF93DF9300D000D01F92CDB76A
:10198000DEB74C835B83209168043091690410E0DA
:1019900000E0232B09F4DAC1A62EB12C8F3F980763
:1019A00071F5CA010E94620700E810E0F801E81B27
:1019B000F90BCF018C0197FF02C010E000E03C81E1
:1019C00039838B818A8390E8892E912CE981FA8171
:1019D0008191FA83E983882309F4B8C18A3001F53B
:1019E00020916C0430E0A401401B510BB501C801EB
:1019F0000E94F70B80916C04A80EB11CA2C197FF46
:101A0000D9CF8C819B810E94620700E810E0980189
:101A1000281B390BC90137FD019695958795CACFCB
:101A20009DE3980F933008F0C8C08093720480E063
:101A3000E0916804F0916904309709F485C1309110
:101A40006D04831708F480C190916E04981708F410
:101A50007BC107FD79C16A2D683008F075C12091FE
:101A60006C0440916A04249FA00111244F5F5F4FD2
:101A700090E0DC01A31BB1094A9F30014B9F700C21
:101A80005A9F700C1124A3014C5F5F4FE40FF51FA8
:101A9000E491CE2ED12CC0970A9708F091C0F09116
:101AA0007004FB83EF1708F495C081E090E09D83FC
:101AB0008C83F12CE12CA8015527CA018C0D9D1DAA
:101AC0008E0D9F1DEC81FD81E80FF91FE138F105B6
:101AD0006CF0F401E41BF50BEE19FF09EC19FD099C
:101AE000FD83EC83F7FF02C01D821C82EC81FD8127
:101AF0008E0F9F1F813891054CF06401C41AD50ADE
:101B0000CE18DF08D7FE02C0D12CC12CCA018C0D23
:101B10009D1D8E0D9F1DEC81FD818E0F9F1F8138B5
:101B200091053CF07401E41AF50AF7FE02C0F12CAD
:101B3000E12C4C814C0D4E0D802F0E94CF0B8091DB
:101B40006C0490E0E89E2001E99E500CF89E500C39
:101B500011242C813D81289F1001299F300C389F32
:101B6000300C1124C89E7001C99EF00CD89EF00C58
:101B700011248091660431E03093D8038093FA03F6
:101B80001092D9031092FB0380E490E00E94B10B05
:101B9000809173041D821C82811172C08C819D8191
:101BA00084159505E4F590E080E00E94B10BEC818E
:101BB000FD813196FD83EC83F1CF0E94500638CF32
:101BC00090916F049B83E917E0F0E1E0F0E0FD8382
:101BD000EC836FCF9B81892F90E08C199D099D83A9
:101BE0008C837C0197FF03C0EFEFEE1AFE0AF59499
:101BF000E7948C819D818E199F0901969D838C832A
:101C00005ACFFB81EF2FF0E0EC19FD09FD83EC8347
:101C10007F01F7FFECCF3FEFE31AF30AE8CF1D8215
:101C20001C82F5E06F0E711C2C813D81E216F306DB
:101C3000A1F0B901660D771DE0916804F091690487
:101C4000E60FF71F64918CE494E00E94820B8C8174
:101C50009D8101969D838C83E7CF1D821C82EC8140
:101C6000FD81E215F3050CF04BC090E080E00E948E
:101C7000B10B2C813D812F5F3F4F3D832C83EFCFF4
:101C80008C819D818415950554F48FEF90E00E941E
:101C9000B10BEC81FD813196FD83EC83F1CF1D8288
:101CA0001C82F5E06F0E711C2C813D81E216F3065B
:101CB000A9F0C901860D971DE0916804F0916904AF
:101CC000E80FF91FE491E0958E2F90E00E94B10B90
:101CD0008C819D8101969D838C83E6CF1D821C8221
:101CE000EC81FD81E215F3055CF48FEF90E00E943A
:101CF000B10B2C813D812F5F3F4F3D832C83F0CF73
:101D00000E94F3054E0C5F1CC201820D931D609171
:101D10006C0470E00E94591A060F111D8091710425
:101D2000882309F453CE003811050CF44FCE80916E
:101D30006C04A80EB11C39E0A316B10414F0B12C48
:101D4000A12C10E000E042CE60E0E6CFC8010F9089
:101D50000F900F900F900F90DF91CF911F910F91E7
:101D6000FF90EF90DF90CF90BF90AF909F908F90BB
:101D70007F906F905F904F903F902F90089590E0EC
:101D800080E0089508958EBD00000DB407FEFDCFDC
:101D90008EB508951F93CF93DF93182F83E590E0BE
:101DA0000E94F005C8E5D4E060E08C850E948D08B3
:101DB000812F80680E94C30E80E00E94C30E182FFE
:101DC00061E08C850E948D08812FDF91CF911F915A
:101DD00008950F931F93CF93DF93082F162F83E55A
:101DE00090E00E94F005C8E5D4E060E08C850E9498
:101DF0008D08802F0E94C30E812F0E94C30E61E0C8
:101E00008C85DF91CF911F910F910C948D08CF930A
:101E1000C82F0E94CA0E682F60688C2FCF910C9437
:101E2000E90EFF920F931F93CF93DF93082FF62EA7
:101E3000172F83E590E00E94F00560E08091640434
:101E40000E948D0882E10E94C30ECF2DD12F0C0F6E
:101E50001D2F111DC017D10721F089910E94C30EBB
:101E6000F9CF61E080916404DF91CF911F910F91D0
:101E7000FF900C948D08EF92FF920F931F93CF93D6
:101E8000DF937C01C62F8A0160E082E00E94E90EA8
:101E900064E08AE00E94E90E84E10E94070FB70126
:101EA0008C2F0E94110F63E082E00E94E90EC8E8C7
:101EB000D3E18AE00E94CA0E82FD04C02197C9F7CF
:101EC00083E00FC060E082E00E94E90E84E40E949B
:101ED000CA0EF801808382E40E94CA0EF801818351
:101EE00080E0DF91CF911F910F91FF90EF900895C7
:101EF0007F928F929F92AF92BF92CF92DF92EF929A
:101F0000FF920F931F93CF93DF93EC01962E6A01FC
:101F1000590180E00115110511F0F8018081FE2CB6
:101F2000F29490EFF922F80E60E082E00E94E90E50
:101F30006FE788E00E94E90E84E10E94070FBE016E
:101F4000892D0E94110F6F2D8AE10E94E90E6CE02D
:101F500082E00E94E90E8AE10E94070FC0EDD7E0FF
:101F600088E00E94CA0E982F907399F480FD02C0F9
:101F70002197B1F783E0DF91CF911F910F91FF90EF
:101F8000EF90DF90CF90BF90AF909F908F907F9019
:101F900008958CE00E94CA0E782E837109F06AC001
:101FA000C114D10409F461C0A114B10409F45DC0E5
:101FB00084E10E94CA0ED82FF50180818D1708F4A4
:101FC0005BC0D083DD2309F447C083E590E00E9425
:101FD000F00560E0809164040E948D08D15082E990
:101FE0000E94C30E5601F12C88248394912CFD1677
:101FF00038F5F11020C0EE20F1F08E2D90E0C0E019
:10200000883048F49401082E01C0220F0A94EAF7A0
:10201000C22B0196F5CF82E90E94C30E9C2F9095AA
:10202000F601208192238C23892B8083F394FFEF88
:10203000AF1ABF0ADCCF82E90E94C30EF501F5CFCB
:10204000CD0ED11C80E00E94C30EF601808361E0BA
:10205000809164040E948D0888E10E94CA0E0115D7
:10206000110519F08770F801808382E073FC83CF3B
:1020700080E081CF81E07FCF84E07DCFFC010190C3
:102080000020E9F73197AF01481B590BBC018CEFD9
:1020900093E00C94D90988E991E00C943E108F925A
:1020A0009F92AF92BF920F931F93CF93DF93CDB7C1
:1020B000DEB7A1970FB6F894DEBF0FBECDBF19A251
:1020C000423008F44AE08E010F5D1F4F842E912CA0
:1020D000B12CA12CA50194010E946D1AE62FB90123
:1020E000CA01EA30F4F4E05DD801EE938D01232BB0
:1020F000242B252B79F790E080E0109719F0CD0183
:102100000E943E10A1960FB6F894DEBF0FBECDBF61
:10211000DF91CF911F910F91BF90AF909F908F90C3
:102120000895E95CE1CFCF93DF93D0E0C0E0009762
:1021300019F00E943E10EC010E944B108C0F9D1F65
:10214000DF91CF9108951F920F920FB60F92112435
:102150002F933F938F939F93AF93BF9380919B0354
:1021600090919C03A0919D03B0919E0330919A039E
:1021700023E0230F2D3758F50196A11DB11D2093A3
:102180009A0380939B0390939C03A0939D03B09329
:102190009E0380919F039091A003A091A103B09111
:1021A000A2030196A11DB11D80939F039093A003EC
:1021B000A093A103B093A203BF91AF919F918F9180
:1021C0003F912F910F900FBE0F901F90189526E80A
:1021D000230F0296A11DB11DD2CF1F920F920FB6F1
:1021E0000F9211248F939F938091E1009091E100D1
:1021F000937F9093E10083FF0FC01092E90091E07C
:102200009093EB001092EC0092E39093ED0010920B
:10221000B00398E09093F00082FF22C093E0909387
:10222000E9009091F200992319F09AE39093E80065
:1022300090916E03992341F090916E039150909389
:102240006E03911101C05D9A9091AF03992341F003
:102250009091AF0391509093AF03911101C0289AD0
:1022600084FF18C08091E2008E7E81608093E2003E
:102270008091E1008F7E8093E10080916F038E7EDC
:10228000806180936F039F918F910F900FBE0F908D
:102290001F90189580FFF7CF8091E2008E7E8061BD
:1022A0008093E2008091E1008E7E8093E100809136
:1022B0006F038E7E8160E5CF1F920F920FB60F9253
:1022C0001124CF92DF92EF92FF920F931F932F93DF
:1022D0003F934F935F936F937F938F939F93AF93AE
:1022E000BF93EF93FF93CF93DF93CDB7DEB76C9798
:1022F000DEBFCDBF1092E9008091E80083FF25C0CA
:1023000068E0CE0145960E94CC0982EF8093E800F8
:102310008D8987FF39C09091E80090FFFCCF982FFE
:10232000907609F034C19E894F89588D2F89F88C99
:10233000911131C0803861F5809170038093F10074
:102340001092F1008EEF8093E8006C960FB6F8942F
:10235000DEBF0FBECDBFDF91CF91FF91EF91BF9157
:10236000AF919F918F917F916F915F914F913F912D
:102370002F911F910F91FF90EF90DF90CF900F90D2
:102380000FBE0F901F9018959EEF9093E800C7CF57
:102390001092F100D5CF913059F48111D3CF413053
:1023A000510581F6809170038D7F80937003CACFB1
:1023B000933049F48111C6CF4130510519F680910F
:1023C00070038260F2CF953041F48091E80080FF85
:1023D000FCCF20682093E300B5CF963009F0A9C068
:1023E0000B8D1C8D22E01092E90010926C0310926C
:1023F0006B03F2122EC010926A03109269030E94BE
:102400009B091F8299E09983FA8291E09E8390EA6A
:1024100098879AEF998720916B0330916C03275F1F
:102420003F4F3C832B838D831092E90010926C0305
:1024300010926B0310936A030093690349E050E024
:10244000BE016F5F7F4F80E00E9475090E949B096B
:1024500079CF10936A03009369030E942D08DC0171
:1024600012960D911C910115110509F451C1D80165
:10247000ED91FC910480F581E02DBE016B5E7F4FF4
:10248000C8010995009709F03EC1F8010085118542
:10249000EACFF3E0FF120EC08F89882309F440C011
:1024A000823061F440E862E18DE091E00E944209EF
:1024B000811148CF81E28093EB0047CF813029F42E
:1024C00040E868E084E091E0F1CF833099F70E9422
:1024D0002D08DC011296ED90FC908E010F5F1F4FCE
:1024E0006801E114F10479F0D701ED91FC910680C7
:1024F000F781E02DB801C7010995080F111DF701FB
:10250000E084F184EECFD8011C92F6010190002006
:10251000E9F73197BF016C197D0940E0C601C6CFCC
:102520006EEE70E0FB01449150E080E80E94750976
:1025300009CF973009F4BECF983021F481E0809321
:10254000F10000CF993009F0FDCE837009F0B2CFD1
:10255000EFE0F1E081E031E096E32191222371F098
:102560008093E9003093EB00DF0111972C912093C9
:10257000EC009093ED008F5F873079F78EE78093C2
:10258000EA001092EA008F898093B003DBCE8B8D36
:102590009C8D1092E90010926C0310926B03909343
:1025A0006A0380936903898D811192C08E899D8908
:1025B000913A49F4813209F07DCF47E050E064E080
:1025C00071E080E0B3CF913209F074CF833269F4C7
:1025D0008F89988DB0E0A0E0809300019093010175
:1025E000A0930201B0930301ADCE803269F48091D3
:1025F000E80082FFFCCF67E084E091E00E94CC0914
:102600008BEF8093E8009ECE823209F09BCE8F89BB
:1026100080930B01EEEFFFE7859194918B3F9C4DEA
:1026200051F1E0E0F8E08091040190910501A09162
:102630000601B0910701803B9440A105B105F1F47A
:1026400080910B0180FD1AC0EE3F8AE0F80789F502
:1026500087E797E7918380838091600080936D0383
:1026600088E19BE00FB6F894A895809360000FBEB8
:102670009093600067CEEEEFFAE0D5CF8081918134
:102680008737974709F05ECEA895809160008861F2
:102690008093600080916D0380936000EE3F2AE09C
:1026A000F20789F08091FE0A9091FF0A918380835E
:1026B00049CE808191818737980751F29093FF0A24
:1026C0008093FE0AC5CF1092FF0A1092FE0A3ACEFE
:1026D0000E942D08DC0112960D911C910115110527
:1026E00009F4E8CED801ED91FC910190F081E02D44
:1026F000BE016B5E7F4FC8010995811123CEF801A1
:1027000000851185EBCF181619060CF41BCED2CE1E
:10271000F1E0FF12BECE62EF70E004CF1F920F9285
:102720000FB60F9211242F933F934F935F936F93A4
:102730007F938F939F93AF93BF93EF93FF9380917A
:10274000B900887F803609F44AC0F0F5883209F470
:10275000A7C018F5803109F49BC0B8F4882309F4A8
:10276000F9C0883009F494C0FF91EF91BF91AF9107
:102770009F918F917F916F915F914F913F912F9199
:102780000F900FBE0F901F901895883109F488C0E4
:10279000803251F78093D50314C0803409F49DC072
:1027A00040F48033B9F38833F9F68093D50385EC90
:1027B000B0C0803509F485C0883509F496C08834E6
:1027C00099F60E94FA0AD0CF883909F48CC038F5FE
:1027D000883729F050F4883611F0803729F683E0E5
:1027E0008093D7031092680357C0883809F47BC0E0
:1027F000803919F0803809F0B7CF809168038032B2
:1028000008F071C0E091680381E08E0F8093680347
:102810008091BB00F0E0E85BFC4F80833DC0803BD3
:1028200039F0E0F4803A09F479C0883A09F09CCF95
:1028300084E08093D7031092470310924603E091FF
:102840007303F091740309958091460381110FC0C1
:1028500081E0809346031092260309C0803C09F46E
:10286000A6CF883C09F4A3CF883B09F07DCFE09147
:10287000470381E08E0F80934703F0E0EA5DFC4F51
:1028800080818093BB00909147038091460329C0CB
:102890008091B2038093BB0085EC8093BC0064CF31
:1028A0009091D4038091D303981758F5E091D40305
:1028B00081E08E0F8093D403F0E0ED54FC4F8081D3
:1028C000E9CFE091D40381E08E0F8093D40380910F
:1028D000BB00F0E0ED54FC4F80839091D4038091D5
:1028E000D3039817C8F285E8D8CFE091D40381E0EC
:1028F0008E0F8093D4038091BB00F0E0ED54FC4F29
:1029000080838091D60381115CCF81E08093B103F5
:1029100084EA8093BC001092D70326CF85EC809385
:10292000BC001092D70380916803803230F4E091AC
:102930006803F0E0E85BFC4F10826091680370E090
:10294000E0917103F091720388E493E0099510928D
:1029500068030ACF1092D50334CF0894881F0C94D3
:10296000B214880FD1F03D9A00000000000020F45E
:1029700000003C980C94BF143C9A0C94BF143D98F2
:10298000A894000000000000359B0E94F0141AF487
:1029900088270C94DC140C94B1143D9A00000000BC
:1029A0003C98992788273D98A8940000359B0E9461
:1029B000F01472F3349B81E0000000003D9A08950A
:1029C00081E008953D9A3C9A0E94F6143D980E9439
:1029D000F614359B0E94F0143C980E94F61408955A
:1029E000359B0C94F014A8940895089508950895C3
:1029F000ECEFF3E01382128288EE93E0A0E0B0E007
:102A000084839583A683B78328E731E031832083CD
:102A10002FEF3FEF35872487ECE4F4E01382128236
:102A200084839583A683B7838AE891E0918380832A
:102A3000E6E6F4E08CE390E0918380831386E8E59A
:102A4000F4E08AE084878FEF85870895CF93DF9342
:102A5000CDB7DEB72C970FB6F894DEBF0FBECDBF53
:102A6000789484B5826084BD84B5816084BD85B569
:102A7000826085BD85B5816085BD80916E00816075
:102A800080936E001092810080918100826080931B
:102A9000810080918100816080938100809180001D
:102AA000816080938000809191008260809391008A
:102AB000809191008160809391008091900081606D
:102AC000809390008091C10084608093C1008091C8
:102AD000C10082608093C1008091C10081608093B9
:102AE000C1008091C30081608093C3008091C000C9
:102AF00082608093C0008091C20081608093C20098
:102B000080917A00846080937A0080917A0082605C
:102B100080937A0080917A00816080937A0080911E
:102B20007A00806880937A001092B003109270034C
:102B300010926F038091D70081608093D70080EA64
:102B40008093D80089B5806189BD89B5826089BDCF
:102B500009B400FEFDCF61E070E080E090E00E94EB
:102B6000E0088091D8008F7C80618093D8008091AC
:102B7000E000807F8093E0008091E1008E7E809372
:102B8000E1008DE08093E200559A209A8FEF9FEF4D
:102B900090930904809308041092690410926804C9
:102BA0001092720410927603109275031092D9035A
:102BB0001092FB031092D70381E08093D60310920A
:102BC000B10361E082E00E948D0861E083E00E9431
:102BD0008D088091B9008E7F8093B9008091B900F3
:102BE0008D7F8093B90088E48093B80085E480935A
:102BF000BC0082E199E0909374038093730383E1B6
:102C000099E0909372038093710382E08093B800FF
:102C10008EEA0E94B60B85ED0E94B60B80E80E94FA
:102C2000B60B88EA0E94B60B8FE30E94B60B83EDC9
:102C30000E94B60B80E00E94B60B80E40E94B60BA7
:102C40008DE80E94B60B84E10E94B60B80E20E94E0
:102C5000B60B80E00E94B60B81EA0E94B60B88ECAE
:102C60000E94B60B8AED0E94B60B82E10E94B60B61
:102C700081E80E94B60B8FEC0E94B60B89ED0E9492
:102C8000B60B81EF0E94B60B8BED0E94B60B80E471
:102C90000E94B60B84EA0E94B60B86EA0E94B60B2D
:102CA0008FEA0E94B60B0E946E0C82E698E00E94AA
:102CB0009F071FB7F89480917703811124C0EDE539
:102CC000FBE08491ECE7FBE09491E82FF0E0EE0F5D
:102CD000FF1FE25CF44FA591B491EC91E92321F43C
:102CE00061E081E10E948D0881E10E94D3078CB5EB
:102CF00080618CBD8CB580648CBD8FE00E94D30751
:102D000080E10E94D307809177038F5F80937703E0
:102D10001FBF809164040E94D30761E08091640426
:102D20000E948D08809165040E94D307209165045C
:102D300030E0F901EE5EF44F8491F901E559F44F6A
:102D40000491F901E45BF44F14911123F1F0811126
:102D50000E944108E12FF0E0EE0FFF1FE05EFE4F02
:102D6000A591B491EC910E2381F06FE082E00E9476
:102D7000E90E62E370E080E090E00E94E00882E00B
:102D80000E94CA0E84FDFBCF0BC061E080916504F8
:102D90000E948D0862E370E080E090E00E94E0080D
:102DA00060E884E50E94E90E69EA86E50E94E90E82
:102DB00063E088E50E94E90E68EE8AE50E94E90E6C
:102DC00060E48AE20E94E90E6DE382E20E94E90E6D
:102DD00088E20E94CA0E982F9370933029F0682FD2
:102DE000636088E20E94E90E8EE60E94CA0E182FE8
:102DF00083E791E00E94740A612F70E090E080E028
:102E000040E10E944F1081E791E00E94740AE8E7D8
:102E1000E10F0BE9E02E01E0F02EEB3038F4F0E0AA
:102E2000EE0FFF1FEB5EFE4FE080F180C7010E94B6
:102E300093100E944B1048E252E060E08EEF9FEF4B
:102E40000E94AA0C1F921F93FF92EF9280E492E0DF
:102E50009F938F931F928EE18F9388E793E09F93C8
:102E60008F930E94A91A48E753E062E08EEF9FEF2C
:102E70000E94AA0C11500FB6F894DEBF0FBECDBF52
:102E80001E3F68F04CE452E064E08EEF9FEF0E943A
:102E9000AA0C8EE291E00E94740A0E944B10442416
:102EA0004394512C82E08B8786E28C878CE10E94D0
:102EB000CA0E682F6F778CE10E94E90E87E08A873F
:102EC000E12C8E01065F1F4F9E01255F3F4FAE0133
:102ED0004F5F5F4F61E0CE010C960E94780F811129
:102EE00074C08B85823021F48A85882309F470C0F0
:102EF0002FB7F89480919B0390919C03A0919D0320
:102F0000B0919E032FBF409196035091970360911B
:102F1000980370919903841B950BA60BB70B80390E
:102F20009140A105B10508F0B9C280910D018F93C0
:102F300080910C018F9388E892E09F938F931F926A
:102F40008EE18F9388E793E09F938F930E94A91A55
:102F500048E753E067E08EEF9FEF0E94AA0C0FB6A0
:102F6000F894DEBF0FBECDBF2FB7F89480919B03BE
:102F700090919C03A0919D03B0919E032FBF40911F
:102F80009603509197036091980370919903841B65
:102F9000950BA60BB70B81329340A105B10508F440
:102FA00055C22FB7F89480919B0390919C03A091F8
:102FB0009D03B0919E032FBF809396039093970338
:102FC000A0939803B093990341C2823009F090CF47
:102FD0008CE10E94CA0E682F6F778CE10E94E90E87
:102FE000B0E79B2E83E98983CC24C394F12CA3E022
:102FF0008A2ED12CE9E07E2E9D2D97709B878D2DFA
:103000008595859585958E5F282F2295207F290FA0
:103010002A8321E0911101C020E0622E680EAA24CB
:10302000A394B12CAC0EBD1EA80EB11C972D981BFD
:103030009A8724C085E98983DCCF87E98983F6E014
:10304000FF2ED7CF9A828B819C8189279D818927EA
:103050009E8189278F83AE01485F5F4F67E0CE0175
:1030600001960E943B0F811143CF1B868A8669E03F
:10307000662ECE0107965C0170E2D72EEB846E2D92
:103080006295607F6E0D8AE10E94E90E8E01055FF8
:103090001F4F9E01265F3F4FA501662DCE01019671
:1030A0000E94780F8230A1F58CE10E94CA0E85FD46
:1030B0001FCF8F7109F480E2282F30E04D2DDD0CF9
:1030C000550B421753070CF013CFD82E215031095E
:1030D00027703327E82FE595E595E595EF5F91E0BB
:1030E000211101C090E0E90F41E050E04C0F5D1F5D
:1030F0004E0F511DFA01A20102C0440F551F2A951F
:10310000E2F79081942B9083803209F075CF9ACFAB
:103110008111EECE50E2D51295CF8B81883809F41B
:103120003BC082E094E0EF2DF0E0E75AFB4F980FB0
:10313000A1E0B0E0AC0FBD1FA80FB11D2C912193F1
:103140008F5F8913F5CFFA8483E0F812D1CE3B84E8
:103150003110CECEAE014D5F5F4F61E0C5010E94E0
:103160003B0F8111C5CE9B81F50181819813C0CEA3
:103170009C8182819813BCCE808182FF10C0C39451
:10318000F2E0CF1609F456CF23E0C21609F455CF6A
:1031900041E0C412ADCE26CF83E093E0C4CF80934C
:1031A00063048C2D880FC80EC394C09258040E94EB
:1031B0006E0C809158041F928F9383E692E09F9348
:1031C0008F931F928EE18F9388E793E09F938F9365
:1031D0000E94A91A82E698E00E949F0748E753E000
:1031E00063E08EEF9FEF0E94AA0C0FB6F894DEBF4B
:1031F0000FBECDBF80915804883008F06CC086EABD
:1032000091E00E949F0781E08093710488E598E037
:103210000E94740A809158040FE010E0883030F466
:1032200003E110E0873011F402E110E0809F90018B
:10323000819F300D112440E8642E712C621A730AAC
:1032400077FE03C09FEF691A790A7594679481E746
:10325000C82E82E0D82E9EE1292E28E7A22E23E058
:10326000B22E809158043816E0F5832C912CF4018D
:10327000E85AFB4F7F0181811F928F93DF92CF929B
:103280001F922F92BF92AF920E94A91A089DC0016F
:10329000099D900D189D900D112448E753E060E0C2
:1032A000860D971D0E94AA0C0FB6F894DEBF0FBEC4
:1032B000CDBFF7018181803188F483EA91E00E94DB
:1032C000740AF701618170E090E080E040E10E94C3
:1032D0004F103394C6CF82E698E093CF81EA91E015
:1032E000EECF0E944B101092710482E698E00E948B
:1032F0009F0786E991E00E94740A809163048031FF
:1033000020F484E991E00E94740A6091630470E003
:1033100090E080E040E10E944F100E944B108091AD
:1033200063041F928F9387E792E09F938F931F927E
:103330008EE18F9388E793E09F938F930E94A91A61
:1033400048E753E064E08EEF9FEF0E94AA0CE09103
:103350006304EF770FB6F894DEBF0FBECDBF10E069
:10336000E13420F4F0E0E55DFE4F108188E891E063
:103370000E94740A7BEDE72E71E0F72E153001F103
:1033800008F06CC0A0EBEA2EA1E0FA2E1230C1F0DA
:1033900058F490EAE92E91E0F92E113089F020E2FC
:1033A000E22E22E0F22E0CC0F4ECEF2EF1E0FF2E24
:1033B000133031F0E0EDEE2EE1E0FE2E143079F71F
:1033C000C7010E94931082E698E00E949F07A70120
:1033D00062E08EEF9FEF0E94AA0C1350143008F0A9
:1033E0005AC0E12FF0E0EE0FFF1FE459FE4F0081BD
:1033F0001181A80165E08EEF9FEF0E94AA0CC80121
:103400000E9493100E944B1080E589831A82AE01BE
:103410004D5F5F4F62E0CE0101960E943B0F81112C
:103420000CC0E12C10E000E030E020E050E040E093
:1034300064E0CE0101960E94780F80910C0190917A
:103440000D01019690930D0180930C0180E090E0B6
:10345000892B09F427CD0E94000024CD58EFE52EDA
:1034600051E0F52E173009F4ABCF66EEE62E61E0A1
:10347000F62E173008F4A4CF44E0E42E42E0F42EF8
:10348000183009F49DCF33E1E32E32E0F32E1F3FD5
:1034900009F496CF84CF0AE911E0ABCF21E030E008
:1034A00040E850E067E070E090E080E00E94F70BB9
:1034B0005BCD97FB072E16F4009407D077FD09D05B
:1034C0000E94951A07FC05D03EF4909581959F4F78
:1034D0000895709561957F4F0895A1E21A2EAA1B59
:1034E000BB1BFD010DC0AA1FBB1FEE1FFF1FA217B4
:1034F000B307E407F50720F0A21BB30BE40BF50BB1
:10350000661F771F881F991F1A9469F76095709539
:10351000809590959B01AC01BD01CF010895EE0F00
:10352000FF1F0590F491E02D0994AA1BBB1B51E1EC
:1035300007C0AA1FBB1FA617B70710F0A61BB70B23
:10354000881F991F5A95A9F780959095BC01CD01C8
:103550000895AEE0B0E0EFEAFAE10C94651D0D8944
:103560001E898F89988D26E02C831A83098397FF03
:1035700002C080E090E801979E838D83AE01455E96
:103580005F4F698D7A8DCE0101960E94D91A4D81C7
:103590005E8157FD0AC02F813885421753070CF40E
:1035A0009A01020F131FF80110822E96E4E00C948A
:1035B000811DABE0B0E0EFEDFAE10C94571D7C010A
:1035C0003B018A01FC0117821682838181FFC8C1F9
:1035D000CE0101965C01F7019381F30193FD859182
:1035E00093FF81913F01882309F453C1853239F457
:1035F00093FD859193FF81913F01853229F4B701B5
:1036000090E00E94C91CE7CF912C212C312CFFE1C6
:10361000F31538F08B3211F190F4803209F18332D6
:1036200029F137FC3CC020ED280F2A3050F536FE3A
:1036300020C08AE0989E200D1124922E06C08D3263
:1036400091F0803371F7689430F8F30193FD859120
:1036500093FF81913F018111DACF21C0689431F845
:10366000689432F8F2CF689433F8EFCF689434F866
:10367000ECCFEAE02E9E200D1124222E689435F81E
:10368000E4CF8E3229F436FC04C1689436F8DDCFDD
:103690008C3619F4689437F8D8CF8836B1F2982F61
:1036A0009F7D95549330E0F08336A1F18337C1F1CB
:1036B000833509F063C02801F2E04F0E511CF80178
:1036C000C080D180692D70E036FC02C06FEF7FEFC3
:1036D000C6010E94B31C4C01689437F882010AC0ED
:1036E0000C5F1F4FFFE3F98388248394912C6501BD
:1036F000E89437F833FE2DC0522C8114910471F5F3
:10370000552009F468CFB70180E290E00E94C91CFF
:103710005A94F6CFF801808189830E5F1F4FE4CF62
:103720002801F2E04F0E511CF801C080D180692DB4
:1037300070E036FC02C06FEF7FEFC6010E94BE1C36
:103740004C018201D5CFB70180E290E00E94C91CF4
:103750002A942814190409F0B0F7CECFF60137FCEB
:10376000859137FE81916F01B70190E00E94C91CDD
:1037700051105A94F1E08F1A9108BFCF843619F096
:10378000893609F077C0F80137FE6BC0608171811E
:10379000828193810C5F1F4FF32DFF763F2E97FFA1
:1037A00009C090958095709561957F4F8F4F9F4F81
:1037B000689437F82AE030E0A5010E94F91CC82E71
:1037C000CA188C2C432C36FE0CC0E89440F8C9145F
:1037D00040F434FE05C032FC03C0F32DFE7E4F2EB4
:1037E000892C44FE95C0FE01EC0DF11D80818033D3
:1037F00009F087C0242D297E422E842D8870582EF2
:1038000043FC95C040FE8FC09C2C821418F42C0CF5
:10381000922C981844FE91C0B70180E390E00E947A
:10382000C91C42FE09C088E790E041FE02C088E55D
:1038300090E0B7010E94C91CC91408F48AC0CA9458
:10384000D12C9FEFC91AD90ACA0CDB1CF601829150
:103850006F01B70190E00E94C91CAC14BD04B1F720
:103860004FCF60817181072E000C880B990B0E5F82
:103870001F4F92CFD32CE894D4F82AE030E085375C
:1038800039F1232D297FD22E8F3601F148F4883566
:10389000A9F0F701868197812B96E2E10C94731DC4
:1038A000803749F08837A9F7D4FE02C06894D2F86F
:1038B00020E130E00DC06894D4F8F6CF34FE03C0A8
:1038C000822F8660D82E20E132E002C028E030E06E
:1038D000F801D7FE0FC060817181828193810C5FF6
:1038E0001F4FA5010E94F91CC82ECA183D2CE89450
:1038F00037F867CF6081718190E080E00E5F1F4FE5
:10390000F0CF42FC02C0839478CF8394839475CF28
:10391000842D867809F471CFF6CFB70180E290E06C
:103920000E94C91C83948214C0F3512C73CF522C73
:103930005818821408F46ECFF8CF842D867809F4D5
:103940007BCF8BE241FE80E247FC8DE2B70190E045
:1039500071CFB70180E390E00E94C91C9A946CCFAC
:103960008FEF9FEF99CFFC010590615070400110DF
:10397000D8F7809590958E0F9F1F0895FC01615098
:10398000704001900110D8F7809590958E0F9F1F81
:1039900008950F931F93CF93DF93182F092FEB01F7
:1039A0008B8181FD09C01FEF0FEF812F902FDF91D9
:1039B000CF911F910F91089582FF14C02E813F81F6
:1039C0008C819D81281739073CF4E881F981CF016A
:1039D00001969983888310838E819F8101969F83AE
:1039E0008E83E3CFE885F985812F0995892BA1F393
:1039F000DACFFA01AA27283051F1203181F1E89479
:103A00006F936E7F6E5F7F4F8F4F9F4FAF4FB1E0D1
:103A10003ED0B4E03CD0670F781F891F9A1FA11DCC
:103A2000680F791F8A1F911DA11D6A0F711D811DCD
:103A3000911DA11D20D009F468943F912AE0269F92
:103A400011243019305D3193DEF6CF010895462FF1
:103A50004770405D4193B3E00FD0C9F7F6CF462FD2
:103A60004F70405D4A3318F0495D31FD405241933B
:103A700002D0A9F7EACFB4E0A695979587957795F8
:103A80006795BA95C9F700976105710508959B017F
:103A9000AC010A2E06945795479537952795BA9508
:103AA000C9F7620F731F841F951FA01D08952F92E1
:103AB0003F924F925F926F927F928F929F92AF92BE
:103AC000BF92CF92DF92EF92FF920F931F93CF930B
:103AD000DF93CDB7DEB7CA1BDB0B0FB6F894DEBFA2
:103AE0000FBECDBF09942A88398848885F846E84C8
:103AF0007D848C849B84AA84B984C884DF80EE8012
:103B0000FD800C811B81AA81B981CE0FD11D0FB61A
:103B1000F894DEBF0FBECDBFED010895F894FFCF3E
:103B2000FFFFFFFF00E1000000000000010000C1F6
:103B3000808100000096029B019B019B019B019BE1
:103B4000019B019B019D02A202A70206080000FF43
:103B50000000000403000000000000070700000050
:103B6000000000050000000000000001000000004F
:103B70000000000000000000000000000000000045
:103B8000000000000000000000000002AC02C202C1
:103B9000DA02F202000000005E0AD9099A0A8F0ACE
:103BA000E00A9E0ABC0A00000000820B550BBF0E03
:103BB0002B0B4E0B3B0B2C0B0D0A00763F3F3F00AF
:103BC00049534F2F4945432031343434332D340089
:103BD00049534F2F49454320313830393220284E40
:103BE000464329004D4946415245204D696E6900C2
:103BF0004D494641524520314B42004D49464152C4
:103C00004520344B42004D494641524520556C7485
:103C100072616C69676874004D4946415245205095
:103C20006C7573004D494641524520544E503358EF
:103C30005858006E6F7420636F6D706C657465000A
:103C4000556E6B6E6F776E004D52433532322046A3
:103C500069726D776172652056657273696F6E0067
:103C6000257320283078253032782900436F6D6D18
:103C7000756E69636174696F6E206661696C7572D7
:103C80006521005549443A202564206279746573A2
:103C900000253032582000436172642053414B3A72
:103CA00020307825303258005363616E2063617292
:103CB000642023256400636C6F6E653F0076302EB0
:103CC000300076312E300076322E3000352073658C
:103CD00063746F7273203D203332302062797465D3
:103CE0007300313620736563746F7273203D203129
:103CF0003032342062797465730034302073656328
:103D0000746F7273203D20343039362062797465C7
:103D100073003136207061676573203D2036342092
:063D200062797465730076
:00000001FF
